{
  "_format": "hh-sol-artifact-1",
  "contractName": "CraftedCollection",
  "sourceName": "contracts/CraftedCollection.sol",
  "abi": [
    {
      "inputs": [],
      "name": "AccessControlBadConfirmation",
      "type": "error"
    },
    {
      "inputs": [
        {
          "internalType": "address",
          "name": "account",
          "type": "address"
        },
        {
          "internalType": "bytes32",
          "name": "neededRole",
          "type": "bytes32"
        }
      ],
      "name": "AccessControlUnauthorizedAccount",
      "type": "error"
    },
    {
      "inputs": [
        {
          "internalType": "address",
          "name": "target",
          "type": "address"
        }
      ],
      "name": "AddressEmptyCode",
      "type": "error"
    },
    {
      "inputs": [],
      "name": "ApprovalCallerNotOwnerNorApproved",
      "type": "error"
    },
    {
      "inputs": [],
      "name": "ApprovalQueryForNonexistentToken",
      "type": "error"
    },
    {
      "inputs": [],
      "name": "BalanceQueryForZeroAddress",
      "type": "error"
    },
    {
      "inputs": [
        {
          "internalType": "address",
          "name": "implementation",
          "type": "address"
        }
      ],
      "name": "ERC1967InvalidImplementation",
      "type": "error"
    },
    {
      "inputs": [],
      "name": "ERC1967NonPayable",
      "type": "error"
    },
    {
      "inputs": [],
      "name": "EnforcedPause",
      "type": "error"
    },
    {
      "inputs": [],
      "name": "ExpectedPause",
      "type": "error"
    },
    {
      "inputs": [],
      "name": "FailedInnerCall",
      "type": "error"
    },
    {
      "inputs": [],
      "name": "InsufficientPayment",
      "type": "error"
    },
    {
      "inputs": [],
      "name": "InvalidInitialization",
      "type": "error"
    },
    {
      "inputs": [],
      "name": "InvalidToken",
      "type": "error"
    },
    {
      "inputs": [],
      "name": "MaxSupplyReached",
      "type": "error"
    },
    {
      "inputs": [],
      "name": "MintERC2309QuantityExceedsLimit",
      "type": "error"
    },
    {
      "inputs": [],
      "name": "MintToZeroAddress",
      "type": "error"
    },
    {
      "inputs": [],
      "name": "MintZeroQuantity",
      "type": "error"
    },
    {
      "inputs": [],
      "name": "NotAuthorized",
      "type": "error"
    },
    {
      "inputs": [],
      "name": "NotCompatibleWithSpotMints",
      "type": "error"
    },
    {
      "inputs": [],
      "name": "NotInitializing",
      "type": "error"
    },
    {
      "inputs": [],
      "name": "OwnerQueryForNonexistentToken",
      "type": "error"
    },
    {
      "inputs": [],
      "name": "OwnershipNotInitializedForExtraData",
      "type": "error"
    },
    {
      "inputs": [],
      "name": "ReentrancyGuardReentrantCall",
      "type": "error"
    },
    {
      "inputs": [],
      "name": "SequentialMintExceedsLimit",
      "type": "error"
    },
    {
      "inputs": [],
      "name": "SequentialUpToTooSmall",
      "type": "error"
    },
    {
      "inputs": [],
      "name": "SpotMintTokenIdTooSmall",
      "type": "error"
    },
    {
      "inputs": [],
      "name": "TokenAlreadyExists",
      "type": "error"
    },
    {
      "inputs": [],
      "name": "TransferCallerNotOwnerNorApproved",
      "type": "error"
    },
    {
      "inputs": [],
      "name": "TransferFromIncorrectOwner",
      "type": "error"
    },
    {
      "inputs": [],
      "name": "TransferToNonERC721ReceiverImplementer",
      "type": "error"
    },
    {
      "inputs": [],
      "name": "TransferToZeroAddress",
      "type": "error"
    },
    {
      "inputs": [],
      "name": "URIQueryForNonexistentToken",
      "type": "error"
    },
    {
      "inputs": [],
      "name": "UUPSUnauthorizedCallContext",
      "type": "error"
    },
    {
      "inputs": [
        {
          "internalType": "bytes32",
          "name": "slot",
          "type": "bytes32"
        }
      ],
      "name": "UUPSUnsupportedProxiableUUID",
      "type": "error"
    },
    {
      "inputs": [],
      "name": "ZeroAddress",
      "type": "error"
    },
    {
      "anonymous": false,
      "inputs": [
        {
          "indexed": true,
          "internalType": "address",
          "name": "owner",
          "type": "address"
        },
        {
          "indexed": true,
          "internalType": "address",
          "name": "approved",
          "type": "address"
        },
        {
          "indexed": true,
          "internalType": "uint256",
          "name": "tokenId",
          "type": "uint256"
        }
      ],
      "name": "Approval",
      "type": "event"
    },
    {
      "anonymous": false,
      "inputs": [
        {
          "indexed": true,
          "internalType": "address",
          "name": "owner",
          "type": "address"
        },
        {
          "indexed": true,
          "internalType": "address",
          "name": "operator",
          "type": "address"
        },
        {
          "indexed": false,
          "internalType": "bool",
          "name": "approved",
          "type": "bool"
        }
      ],
      "name": "ApprovalForAll",
      "type": "event"
    },
    {
      "anonymous": false,
      "inputs": [
        {
          "indexed": false,
          "internalType": "string",
          "name": "baseURI",
          "type": "string"
        }
      ],
      "name": "BaseURISet",
      "type": "event"
    },
    {
      "anonymous": false,
      "inputs": [
        {
          "indexed": true,
          "internalType": "uint256",
          "name": "fromTokenId",
          "type": "uint256"
        },
        {
          "indexed": false,
          "internalType": "uint256",
          "name": "toTokenId",
          "type": "uint256"
        },
        {
          "indexed": true,
          "internalType": "address",
          "name": "from",
          "type": "address"
        },
        {
          "indexed": true,
          "internalType": "address",
          "name": "to",
          "type": "address"
        }
      ],
      "name": "ConsecutiveTransfer",
      "type": "event"
    },
    {
      "anonymous": false,
      "inputs": [],
      "name": "CraftingInitialized",
      "type": "event"
    },
    {
      "anonymous": false,
      "inputs": [
        {
          "indexed": false,
          "internalType": "uint64",
          "name": "version",
          "type": "uint64"
        }
      ],
      "name": "Initialized",
      "type": "event"
    },
    {
      "anonymous": false,
      "inputs": [
        {
          "indexed": true,
          "internalType": "uint256",
          "name": "tokenId",
          "type": "uint256"
        },
        {
          "indexed": false,
          "internalType": "string",
          "name": "metadataURI",
          "type": "string"
        }
      ],
      "name": "MetadataUpdated",
      "type": "event"
    },
    {
      "anonymous": false,
      "inputs": [
        {
          "indexed": false,
          "internalType": "address",
          "name": "account",
          "type": "address"
        }
      ],
      "name": "Paused",
      "type": "event"
    },
    {
      "anonymous": false,
      "inputs": [
        {
          "indexed": true,
          "internalType": "bytes32",
          "name": "role",
          "type": "bytes32"
        },
        {
          "indexed": true,
          "internalType": "bytes32",
          "name": "previousAdminRole",
          "type": "bytes32"
        },
        {
          "indexed": true,
          "internalType": "bytes32",
          "name": "newAdminRole",
          "type": "bytes32"
        }
      ],
      "name": "RoleAdminChanged",
      "type": "event"
    },
    {
      "anonymous": false,
      "inputs": [
        {
          "indexed": true,
          "internalType": "bytes32",
          "name": "role",
          "type": "bytes32"
        },
        {
          "indexed": true,
          "internalType": "address",
          "name": "account",
          "type": "address"
        },
        {
          "indexed": true,
          "internalType": "address",
          "name": "sender",
          "type": "address"
        }
      ],
      "name": "RoleGranted",
      "type": "event"
    },
    {
      "anonymous": false,
      "inputs": [
        {
          "indexed": true,
          "internalType": "bytes32",
          "name": "role",
          "type": "bytes32"
        },
        {
          "indexed": true,
          "internalType": "address",
          "name": "account",
          "type": "address"
        },
        {
          "indexed": true,
          "internalType": "address",
          "name": "sender",
          "type": "address"
        }
      ],
      "name": "RoleRevoked",
      "type": "event"
    },
    {
      "anonymous": false,
      "inputs": [
        {
          "indexed": true,
          "internalType": "uint256",
          "name": "tokenId",
          "type": "uint256"
        },
        {
          "components": [
            {
              "internalType": "string",
              "name": "code",
              "type": "string"
            },
            {
              "internalType": "string",
              "name": "artVersion",
              "type": "string"
            },
            {
              "internalType": "string",
              "name": "metadataURI",
              "type": "string"
            },
            {
              "internalType": "uint256",
              "name": "level",
              "type": "uint256"
            },
            {
              "internalType": "uint256",
              "name": "power",
              "type": "uint256"
            },
            {
              "internalType": "uint256",
              "name": "rarity",
              "type": "uint256"
            }
          ],
          "indexed": false,
          "internalType": "struct CraftedCollection.Traits",
          "name": "traits",
          "type": "tuple"
        }
      ],
      "name": "TraitsUpdated",
      "type": "event"
    },
    {
      "anonymous": false,
      "inputs": [
        {
          "indexed": true,
          "internalType": "address",
          "name": "from",
          "type": "address"
        },
        {
          "indexed": true,
          "internalType": "address",
          "name": "to",
          "type": "address"
        },
        {
          "indexed": true,
          "internalType": "uint256",
          "name": "tokenId",
          "type": "uint256"
        }
      ],
      "name": "Transfer",
      "type": "event"
    },
    {
      "anonymous": false,
      "inputs": [
        {
          "indexed": false,
          "internalType": "address",
          "name": "account",
          "type": "address"
        }
      ],
      "name": "Unpaused",
      "type": "event"
    },
    {
      "anonymous": false,
      "inputs": [
        {
          "indexed": true,
          "internalType": "address",
          "name": "implementation",
          "type": "address"
        }
      ],
      "name": "Upgraded",
      "type": "event"
    },
    {
      "inputs": [],
      "name": "ADMIN_ROLE",
      "outputs": [
        {
          "internalType": "bytes32",
          "name": "",
          "type": "bytes32"
        }
      ],
      "stateMutability": "view",
      "type": "function"
    },
    {
      "inputs": [],
      "name": "CRAFTER_ROLE",
      "outputs": [
        {
          "internalType": "bytes32",
          "name": "",
          "type": "bytes32"
        }
      ],
      "stateMutability": "view",
      "type": "function"
    },
    {
      "inputs": [],
      "name": "DEFAULT_ADMIN_ROLE",
      "outputs": [
        {
          "internalType": "bytes32",
          "name": "",
          "type": "bytes32"
        }
      ],
      "stateMutability": "view",
      "type": "function"
    },
    {
      "inputs": [],
      "name": "MAX_SUPPLY",
      "outputs": [
        {
          "internalType": "uint256",
          "name": "",
          "type": "uint256"
        }
      ],
      "stateMutability": "view",
      "type": "function"
    },
    {
      "inputs": [],
      "name": "MINT_PRICE",
      "outputs": [
        {
          "internalType": "uint256",
          "name": "",
          "type": "uint256"
        }
      ],
      "stateMutability": "view",
      "type": "function"
    },
    {
      "inputs": [],
      "name": "UPGRADE_INTERFACE_VERSION",
      "outputs": [
        {
          "internalType": "string",
          "name": "",
          "type": "string"
        }
      ],
      "stateMutability": "view",
      "type": "function"
    },
    {
      "inputs": [
        {
          "internalType": "address",
          "name": "to",
          "type": "address"
        },
        {
          "internalType": "uint256",
          "name": "tokenId",
          "type": "uint256"
        }
      ],
      "name": "approve",
      "outputs": [],
      "stateMutability": "payable",
      "type": "function"
    },
    {
      "inputs": [
        {
          "internalType": "address",
          "name": "owner",
          "type": "address"
        }
      ],
      "name": "balanceOf",
      "outputs": [
        {
          "internalType": "uint256",
          "name": "",
          "type": "uint256"
        }
      ],
      "stateMutability": "view",
      "type": "function"
    },
    {
      "inputs": [
        {
          "internalType": "uint256",
          "name": "tokenId",
          "type": "uint256"
        }
      ],
      "name": "getApproved",
      "outputs": [
        {
          "internalType": "address",
          "name": "",
          "type": "address"
        }
      ],
      "stateMutability": "view",
      "type": "function"
    },
    {
      "inputs": [
        {
          "internalType": "bytes32",
          "name": "role",
          "type": "bytes32"
        }
      ],
      "name": "getRoleAdmin",
      "outputs": [
        {
          "internalType": "bytes32",
          "name": "",
          "type": "bytes32"
        }
      ],
      "stateMutability": "view",
      "type": "function"
    },
    {
      "inputs": [
        {
          "internalType": "uint256",
          "name": "tokenId",
          "type": "uint256"
        }
      ],
      "name": "getTraits",
      "outputs": [
        {
          "components": [
            {
              "internalType": "string",
              "name": "code",
              "type": "string"
            },
            {
              "internalType": "string",
              "name": "artVersion",
              "type": "string"
            },
            {
              "internalType": "string",
              "name": "metadataURI",
              "type": "string"
            },
            {
              "internalType": "uint256",
              "name": "level",
              "type": "uint256"
            },
            {
              "internalType": "uint256",
              "name": "power",
              "type": "uint256"
            },
            {
              "internalType": "uint256",
              "name": "rarity",
              "type": "uint256"
            }
          ],
          "internalType": "struct CraftedCollection.Traits",
          "name": "",
          "type": "tuple"
        }
      ],
      "stateMutability": "view",
      "type": "function"
    },
    {
      "inputs": [
        {
          "internalType": "bytes32",
          "name": "role",
          "type": "bytes32"
        },
        {
          "internalType": "address",
          "name": "account",
          "type": "address"
        }
      ],
      "name": "grantRole",
      "outputs": [],
      "stateMutability": "nonpayable",
      "type": "function"
    },
    {
      "inputs": [
        {
          "internalType": "bytes32",
          "name": "role",
          "type": "bytes32"
        },
        {
          "internalType": "address",
          "name": "account",
          "type": "address"
        }
      ],
      "name": "hasRole",
      "outputs": [
        {
          "internalType": "bool",
          "name": "",
          "type": "bool"
        }
      ],
      "stateMutability": "view",
      "type": "function"
    },
    {
      "inputs": [
        {
          "internalType": "string",
          "name": "name_",
          "type": "string"
        },
        {
          "internalType": "string",
          "name": "symbol_",
          "type": "string"
        }
      ],
      "name": "initialize",
      "outputs": [],
      "stateMutability": "nonpayable",
      "type": "function"
    },
    {
      "inputs": [
        {
          "internalType": "address",
          "name": "owner",
          "type": "address"
        },
        {
          "internalType": "address",
          "name": "operator",
          "type": "address"
        }
      ],
      "name": "isApprovedForAll",
      "outputs": [
        {
          "internalType": "bool",
          "name": "",
          "type": "bool"
        }
      ],
      "stateMutability": "view",
      "type": "function"
    },
    {
      "inputs": [],
      "name": "name",
      "outputs": [
        {
          "internalType": "string",
          "name": "",
          "type": "string"
        }
      ],
      "stateMutability": "view",
      "type": "function"
    },
    {
      "inputs": [
        {
          "internalType": "uint256",
          "name": "tokenId",
          "type": "uint256"
        }
      ],
      "name": "ownerOf",
      "outputs": [
        {
          "internalType": "address",
          "name": "",
          "type": "address"
        }
      ],
      "stateMutability": "view",
      "type": "function"
    },
    {
      "inputs": [],
      "name": "pause",
      "outputs": [],
      "stateMutability": "nonpayable",
      "type": "function"
    },
    {
      "inputs": [],
      "name": "paused",
      "outputs": [
        {
          "internalType": "bool",
          "name": "",
          "type": "bool"
        }
      ],
      "stateMutability": "view",
      "type": "function"
    },
    {
      "inputs": [],
      "name": "proxiableUUID",
      "outputs": [
        {
          "internalType": "bytes32",
          "name": "",
          "type": "bytes32"
        }
      ],
      "stateMutability": "view",
      "type": "function"
    },
    {
      "inputs": [
        {
          "internalType": "uint256",
          "name": "quantity",
          "type": "uint256"
        }
      ],
      "name": "publicMint",
      "outputs": [],
      "stateMutability": "payable",
      "type": "function"
    },
    {
      "inputs": [
        {
          "internalType": "bytes32",
          "name": "role",
          "type": "bytes32"
        },
        {
          "internalType": "address",
          "name": "callerConfirmation",
          "type": "address"
        }
      ],
      "name": "renounceRole",
      "outputs": [],
      "stateMutability": "nonpayable",
      "type": "function"
    },
    {
      "inputs": [
        {
          "internalType": "bytes32",
          "name": "role",
          "type": "bytes32"
        },
        {
          "internalType": "address",
          "name": "account",
          "type": "address"
        }
      ],
      "name": "revokeRole",
      "outputs": [],
      "stateMutability": "nonpayable",
      "type": "function"
    },
    {
      "inputs": [
        {
          "internalType": "address",
          "name": "from",
          "type": "address"
        },
        {
          "internalType": "address",
          "name": "to",
          "type": "address"
        },
        {
          "internalType": "uint256",
          "name": "tokenId",
          "type": "uint256"
        }
      ],
      "name": "safeTransferFrom",
      "outputs": [],
      "stateMutability": "payable",
      "type": "function"
    },
    {
      "inputs": [
        {
          "internalType": "address",
          "name": "from",
          "type": "address"
        },
        {
          "internalType": "address",
          "name": "to",
          "type": "address"
        },
        {
          "internalType": "uint256",
          "name": "tokenId",
          "type": "uint256"
        },
        {
          "internalType": "bytes",
          "name": "_data",
          "type": "bytes"
        }
      ],
      "name": "safeTransferFrom",
      "outputs": [],
      "stateMutability": "payable",
      "type": "function"
    },
    {
      "inputs": [
        {
          "internalType": "address",
          "name": "operator",
          "type": "address"
        },
        {
          "internalType": "bool",
          "name": "approved",
          "type": "bool"
        }
      ],
      "name": "setApprovalForAll",
      "outputs": [],
      "stateMutability": "nonpayable",
      "type": "function"
    },
    {
      "inputs": [
        {
          "internalType": "string",
          "name": "baseURI",
          "type": "string"
        }
      ],
      "name": "setBaseURI",
      "outputs": [],
      "stateMutability": "nonpayable",
      "type": "function"
    },
    {
      "inputs": [
        {
          "internalType": "bytes4",
          "name": "interfaceId",
          "type": "bytes4"
        }
      ],
      "name": "supportsInterface",
      "outputs": [
        {
          "internalType": "bool",
          "name": "",
          "type": "bool"
        }
      ],
      "stateMutability": "view",
      "type": "function"
    },
    {
      "inputs": [],
      "name": "symbol",
      "outputs": [
        {
          "internalType": "string",
          "name": "",
          "type": "string"
        }
      ],
      "stateMutability": "view",
      "type": "function"
    },
    {
      "inputs": [
        {
          "internalType": "uint256",
          "name": "tokenId",
          "type": "uint256"
        }
      ],
      "name": "tokenURI",
      "outputs": [
        {
          "internalType": "string",
          "name": "",
          "type": "string"
        }
      ],
      "stateMutability": "view",
      "type": "function"
    },
    {
      "inputs": [],
      "name": "totalSupply",
      "outputs": [
        {
          "internalType": "uint256",
          "name": "result",
          "type": "uint256"
        }
      ],
      "stateMutability": "view",
      "type": "function"
    },
    {
      "inputs": [
        {
          "internalType": "address",
          "name": "from",
          "type": "address"
        },
        {
          "internalType": "address",
          "name": "to",
          "type": "address"
        },
        {
          "internalType": "uint256",
          "name": "tokenId",
          "type": "uint256"
        }
      ],
      "name": "transferFrom",
      "outputs": [],
      "stateMutability": "payable",
      "type": "function"
    },
    {
      "inputs": [],
      "name": "unpause",
      "outputs": [],
      "stateMutability": "nonpayable",
      "type": "function"
    },
    {
      "inputs": [
        {
          "internalType": "uint256",
          "name": "tokenId",
          "type": "uint256"
        },
        {
          "internalType": "string",
          "name": "newURI",
          "type": "string"
        }
      ],
      "name": "updateMetadata",
      "outputs": [],
      "stateMutability": "nonpayable",
      "type": "function"
    },
    {
      "inputs": [
        {
          "internalType": "uint256",
          "name": "tokenId",
          "type": "uint256"
        },
        {
          "components": [
            {
              "internalType": "string",
              "name": "code",
              "type": "string"
            },
            {
              "internalType": "string",
              "name": "artVersion",
              "type": "string"
            },
            {
              "internalType": "string",
              "name": "metadataURI",
              "type": "string"
            },
            {
              "internalType": "uint256",
              "name": "level",
              "type": "uint256"
            },
            {
              "internalType": "uint256",
              "name": "power",
              "type": "uint256"
            },
            {
              "internalType": "uint256",
              "name": "rarity",
              "type": "uint256"
            }
          ],
          "internalType": "struct CraftedCollection.Traits",
          "name": "newTraits",
          "type": "tuple"
        }
      ],
      "name": "updateTraits",
      "outputs": [],
      "stateMutability": "nonpayable",
      "type": "function"
    },
    {
      "inputs": [
        {
          "internalType": "address",
          "name": "newImplementation",
          "type": "address"
        },
        {
          "internalType": "bytes",
          "name": "data",
          "type": "bytes"
        }
      ],
      "name": "upgradeToAndCall",
      "outputs": [],
      "stateMutability": "payable",
      "type": "function"
    },
    {
      "inputs": [
        {
          "internalType": "address payable",
          "name": "recipient",
          "type": "address"
        }
      ],
      "name": "withdraw",
      "outputs": [],
      "stateMutability": "nonpayable",
      "type": "function"
    }
  ],
  "bytecode": "0x60a06040523073ffffffffffffffffffffffffffffffffffffffff1660809073ffffffffffffffffffffffffffffffffffffffff1681525034801561004357600080fd5b50608051614e3d61006d600039600081816126c40152818161271901526128f70152614e3d6000f3fe60806040526004361061021a5760003560e01c806353c8388e11610123578063a217fddf116100ab578063c1380e291161006f578063c1380e291461075b578063c87b56dd14610784578063d547741f146107c1578063e1dc0761146107ea578063e985e9c5146108275761021a565b8063a217fddf14610695578063a22cb465146106c0578063ad3cb1cc146106e9578063b88d4fde14610714578063c002d23d146107305761021a565b806370a08231116100f257806370a08231146105ae57806375b238fc146105eb5780638456cb591461061657806391d148541461062d57806395d89b411461066a5761021a565b806353c8388e146104f457806355f804b31461051d5780635c975abb146105465780636352211e146105715761021a565b806332cb6b0c116101a657806342842e0e1161017557806342842e0e1461043f5780634cd88b761461045b5780634f1ef2861461048457806351cff8d9146104a057806352d1902d146104c95761021a565b806332cb6b0c146103a9578063338cab93146103d457806336568abe146103ff5780633f4ba83a146104285761021a565b806318160ddd116101ed57806318160ddd146102e057806323b872dd1461030b578063248a9ca3146103275780632db11544146103645780632f2ff15d146103805761021a565b806301ffc9a71461021f57806306fdde031461025c578063081812fc14610287578063095ea7b3146102c4575b600080fd5b34801561022b57600080fd5b5061024660048036038101906102419190613676565b610864565b60405161025391906136be565b60405180910390f35b34801561026857600080fd5b50610271610876565b60405161027e9190613769565b60405180910390f35b34801561029357600080fd5b506102ae60048036038101906102a991906137c1565b610911565b6040516102bb919061382f565b60405180910390f35b6102de60048036038101906102d99190613876565b610978565b005b3480156102ec57600080fd5b506102f5610988565b60405161030291906138c5565b60405180910390f35b610325600480360381019061032091906138e0565b6109f0565b005b34801561033357600080fd5b5061034e60048036038101906103499190613969565b610ce7565b60405161035b91906139a5565b60405180910390f35b61037e600480360381019061037991906137c1565b610d15565b005b34801561038c57600080fd5b506103a760048036038101906103a291906139c0565b610e0e565b005b3480156103b557600080fd5b506103be610e30565b6040516103cb91906138c5565b60405180910390f35b3480156103e057600080fd5b506103e9610e36565b6040516103f691906139a5565b60405180910390f35b34801561040b57600080fd5b50610426600480360381019061042191906139c0565b610e5a565b005b34801561043457600080fd5b5061043d610ed5565b005b610459600480360381019061045491906138e0565b610f0a565b005b34801561046757600080fd5b50610482600480360381019061047d9190613b35565b610f2a565b005b61049e60048036038101906104999190613c4e565b611288565b005b3480156104ac57600080fd5b506104c760048036038101906104c29190613ce8565b6112a7565b005b3480156104d557600080fd5b506104de611398565b6040516104eb91906139a5565b60405180910390f35b34801561050057600080fd5b5061051b60048036038101906105169190613d75565b6113cb565b005b34801561052957600080fd5b50610544600480360381019061053f9190613dd5565b61149a565b005b34801561055257600080fd5b5061055b611514565b60405161056891906136be565b60405180910390f35b34801561057d57600080fd5b50610598600480360381019061059391906137c1565b611539565b6040516105a5919061382f565b60405180910390f35b3480156105ba57600080fd5b506105d560048036038101906105d09190613e22565b61154b565b6040516105e291906138c5565b60405180910390f35b3480156105f757600080fd5b506106006115eb565b60405161060d91906139a5565b60405180910390f35b34801561062257600080fd5b5061062b61160f565b005b34801561063957600080fd5b50610654600480360381019061064f91906139c0565b611644565b60405161066191906136be565b60405180910390f35b34801561067657600080fd5b5061067f6116bd565b60405161068c9190613769565b60405180910390f35b3480156106a157600080fd5b506106aa611758565b6040516106b791906139a5565b60405180910390f35b3480156106cc57600080fd5b506106e760048036038101906106e29190613e7b565b61175f565b005b3480156106f557600080fd5b506106fe611873565b60405161070b9190613769565b60405180910390f35b61072e60048036038101906107299190613ebb565b6118ac565b005b34801561073c57600080fd5b506107456118fe565b60405161075291906138c5565b60405180910390f35b34801561076757600080fd5b50610782600480360381019061077d9190613f62565b611909565b005b34801561079057600080fd5b506107ab60048036038101906107a691906137c1565b6119d2565b6040516107b89190613769565b60405180910390f35b3480156107cd57600080fd5b506107e860048036038101906107e391906139c0565b611a45565b005b3480156107f657600080fd5b50610811600480360381019061080c91906137c1565b611a67565b60405161081e91906140ae565b60405180910390f35b34801561083357600080fd5b5061084e600480360381019061084991906140d0565b611ca7565b60405161085b91906136be565b60405180910390f35b600061086f82611d44565b9050919050565b6060610880611dbe565b600201805461088e9061413f565b80601f01602080910402602001604051908101604052809291908181526020018280546108ba9061413f565b80156109075780601f106108dc57610100808354040283529160200191610907565b820191906000526020600020905b8154815290600101906020018083116108ea57829003601f168201915b5050505050905090565b600061091c82611deb565b6109315761093063cf4700e460e01b611eb2565b5b610939611dbe565b600601600083815260200190815260200160002060000160009054906101000a900473ffffffffffffffffffffffffffffffffffffffff169050919050565b61098482826001611ebc565b5050565b6000610992611ff4565b61099a611dbe565b600101546109a6611dbe565b60000154030390507fffffffffffffffffffffffffffffffffffffffffffffffffffffffffffffffff6109d7611ff9565b146109ed576109e4611dbe565b60080154810190505b90565b60006109fb82612021565b905073ffffffffffffffffffffffffffffffffffffffff8473ffffffffffffffffffffffffffffffffffffffff161693508373ffffffffffffffffffffffffffffffffffffffff168173ffffffffffffffffffffffffffffffffffffffff1614610a7057610a6f63a114810060e01b611eb2565b5b600080610a7c84612155565b91509150610a928187610a8d612185565b61218d565b610abd57610aa786610aa2612185565b611ca7565b610abc57610abb6359c896be60e01b611eb2565b5b5b610aca86868660016121d1565b8015610ad557600082555b610add611dbe565b60050160008773ffffffffffffffffffffffffffffffffffffffff1673ffffffffffffffffffffffffffffffffffffffff168152602001908152602001600020600081546001900391905081905550610b34611dbe565b60050160008673ffffffffffffffffffffffffffffffffffffffff1673ffffffffffffffffffffffffffffffffffffffff1681526020019081526020016000206000815460010191905081905550610bb585610b918888876121d7565b7c0200000000000000000000000000000000000000000000000000000000176121ff565b610bbd611dbe565b60040160008681526020019081526020016000208190555060007c0200000000000000000000000000000000000000000000000000000000841603610c5f5760006001850190506000610c0e611dbe565b60040160008381526020019081526020016000205403610c5d57610c30611dbe565b600001548114610c5c5783610c43611dbe565b6004016000838152602001908152602001600020819055505b5b505b600073ffffffffffffffffffffffffffffffffffffffff8673ffffffffffffffffffffffffffffffffffffffff161690508481887fddf252ad1be2c89b69c2b068fc378daa952ba7f163c4a11628f55a4df523b3ef600080a460008103610cd157610cd063ea553b3460e01b611eb2565b5b610cde878787600161222a565b50505050505050565b600080610cf2612230565b905080600001600084815260200190815260200160002060010154915050919050565b610d1d612258565b610d25612299565b60008103610d5f576040517fc1ab6dc100000000000000000000000000000000000000000000000000000000815260040160405180910390fd5b61037881610d6b610988565b610d75919061419f565b1115610dad576040517fd05cb60900000000000000000000000000000000000000000000000000000000815260040160405180910390fd5b80662386f26fc10000610dc091906141d3565b341015610df9576040517fcd1c886700000000000000000000000000000000000000000000000000000000815260040160405180910390fd5b610e0333826122f0565b610e0b61230e565b50565b610e1782610ce7565b610e2081612327565b610e2a838361233b565b50505050565b61037881565b7f4ba68d394296e94ab6523d7aa99d008a89d73b64505b067e0770522ff96e233081565b610e6261243c565b73ffffffffffffffffffffffffffffffffffffffff168173ffffffffffffffffffffffffffffffffffffffff1614610ec6576040517f6697b23200000000000000000000000000000000000000000000000000000000815260040160405180910390fd5b610ed08282612444565b505050565b7fa49807205ce4d355092ef5a8a18f56e8913cf4a201fbe287825b095693c21775610eff81612327565b610f07612546565b50565b610f25838383604051806020016040528060008152506118ac565b505050565b610f326125b8565b60000160019054906101000a900460ff16610f6657610f4f6125b8565b60000160009054906101000a900460ff1615610f6f565b610f6e6125e5565b5b610fae576040517f08c379a0000000000000000000000000000000000000000000000000000000008152600401610fa590614287565b60405180910390fd5b6000610fb86125b8565b60000160019054906101000a900460ff16159050801561101b576001610fdc6125b8565b60000160016101000a81548160ff02191690831515021790555060016110006125b8565b60000160006101000a81548160ff0219169083151502179055505b60006110256125fc565b905060008160000160089054906101000a900460ff1615905060008260000160009054906101000a900467ffffffffffffffff1690506000808267ffffffffffffffff161480156110735750825b9050600060018367ffffffffffffffff161480156110a8575060003073ffffffffffffffffffffffffffffffffffffffff163b145b9050811580156110b6575080155b156110ed576040517ff92ee8a900000000000000000000000000000000000000000000000000000000815260040160405180910390fd5b60018560000160006101000a81548167ffffffffffffffff021916908367ffffffffffffffff160217905550831561113d5760018560000160086101000a81548160ff0219169083151502179055505b6111478888612624565b61114f61268a565b611157612694565b61115f6126a6565b6111676126b8565b6111746000801b3361233b565b5061119f7fa49807205ce4d355092ef5a8a18f56e8913cf4a201fbe287825b095693c217753361233b565b506111ca7f4ba68d394296e94ab6523d7aa99d008a89d73b64505b067e0770522ff96e23303361233b565b507fe3d77c0c81a47993ce8e388adc64fe0dc88bd28fbf57cbdf333006b59ad82a0a60405160405180910390a183156112535760008560000160086101000a81548160ff0219169083151502179055507fc7f505b2f371ae2175ee4913f4499e1f2633a7b5936321eed1cdaeb6115181d2600160405161124a9190614300565b60405180910390a15b505050505080156112835760006112686125b8565b60000160016101000a81548160ff0219169083151502179055505b505050565b6112906126c2565b611299826127a8565b6112a382826127d6565b5050565b7fa49807205ce4d355092ef5a8a18f56e8913cf4a201fbe287825b095693c217756112d181612327565b6112d9612299565b600073ffffffffffffffffffffffffffffffffffffffff168273ffffffffffffffffffffffffffffffffffffffff160361133f576040517fd92e233d00000000000000000000000000000000000000000000000000000000815260040160405180910390fd5b60004790508273ffffffffffffffffffffffffffffffffffffffff166108fc829081150290604051600060405180830381858888f1935050505015801561138a573d6000803e3d6000fd5b505061139461230e565b5050565b60006113a26128f5565b7f360894a13ba1a3210667c828492db98dca3e2076cc3735a920a3ca505d382bbc60001b905090565b7f4ba68d394296e94ab6523d7aa99d008a89d73b64505b067e0770522ff96e23306113f581612327565b6113fe84611deb565b611434576040517fc1ab6dc100000000000000000000000000000000000000000000000000000000815260040160405180910390fd5b82826001600087815260200190815260200160002060020191826114599291906144c8565b50837f459157ba24c7ab9878b165ef465fa6ae2ab42bcd8445f576be378768b0c47309848460405161148c9291906145c5565b60405180910390a250505050565b7fa49807205ce4d355092ef5a8a18f56e8913cf4a201fbe287825b095693c217756114c481612327565b8282600091826114d59291906144c8565b507ff9c7803e94e0d3c02900d8a90893a6d5e90dd04d32a4cfe825520f82bf9f32f683836040516115079291906145c5565b60405180910390a1505050565b60008061151f61297c565b90508060000160009054906101000a900460ff1691505090565b600061154482612021565b9050919050565b60008073ffffffffffffffffffffffffffffffffffffffff168273ffffffffffffffffffffffffffffffffffffffff160361159157611590638f4eb60460e01b611eb2565b5b67ffffffffffffffff6115a2611dbe565b60050160008473ffffffffffffffffffffffffffffffffffffffff1673ffffffffffffffffffffffffffffffffffffffff16815260200190815260200160002054169050919050565b7fa49807205ce4d355092ef5a8a18f56e8913cf4a201fbe287825b095693c2177581565b7fa49807205ce4d355092ef5a8a18f56e8913cf4a201fbe287825b095693c2177561163981612327565b6116416129a4565b50565b60008061164f612230565b905080600001600085815260200190815260200160002060000160008473ffffffffffffffffffffffffffffffffffffffff1673ffffffffffffffffffffffffffffffffffffffff16815260200190815260200160002060009054906101000a900460ff1691505092915050565b60606116c7611dbe565b60030180546116d59061413f565b80601f01602080910402602001604051908101604052809291908181526020018280546117019061413f565b801561174e5780601f106117235761010080835404028352916020019161174e565b820191906000526020600020905b81548152906001019060200180831161173157829003601f168201915b5050505050905090565b6000801b81565b80611768611dbe565b6007016000611775612185565b73ffffffffffffffffffffffffffffffffffffffff1673ffffffffffffffffffffffffffffffffffffffff16815260200190815260200160002060008473ffffffffffffffffffffffffffffffffffffffff1673ffffffffffffffffffffffffffffffffffffffff16815260200190815260200160002060006101000a81548160ff0219169083151502179055508173ffffffffffffffffffffffffffffffffffffffff16611822612185565b73ffffffffffffffffffffffffffffffffffffffff167f17307eab39ab6107e8899845ad3d59bd9653f200f220920489ca2b5937696c318360405161186791906136be565b60405180910390a35050565b6040518060400160405280600581526020017f352e302e3000000000000000000000000000000000000000000000000000000081525081565b6118b78484846109f0565b60008373ffffffffffffffffffffffffffffffffffffffff163b146118f8576118e284848484612a16565b6118f7576118f663d1a57ed660e01b611eb2565b5b5b50505050565b662386f26fc1000081565b7f4ba68d394296e94ab6523d7aa99d008a89d73b64505b067e0770522ff96e233061193381612327565b61193c83611deb565b611972576040517fc1ab6dc100000000000000000000000000000000000000000000000000000000815260040160405180910390fd5b8160016000858152602001908152602001600020818161199291906147bd565b905050827fcb51969318cee471d3abc5ee4d81ea83e4748e5063261189cbf68810b17066cf836040516119c5919061494e565b60405180910390a2505050565b60606119dd82611deb565b611a13576040517fc1ab6dc100000000000000000000000000000000000000000000000000000000815260040160405180910390fd5b6000611a1e83612b45565b604051602001611a2f929190614a7b565b6040516020818303038152906040529050919050565b611a4e82610ce7565b611a5781612327565b611a618383612444565b50505050565b611a6f6135d4565b611a7882611deb565b611aae576040517fc1ab6dc100000000000000000000000000000000000000000000000000000000815260040160405180910390fd5b600160008381526020019081526020016000206040518060c0016040529081600082018054611adc9061413f565b80601f0160208091040260200160405190810160405280929190818152602001828054611b089061413f565b8015611b555780601f10611b2a57610100808354040283529160200191611b55565b820191906000526020600020905b815481529060010190602001808311611b3857829003601f168201915b50505050508152602001600182018054611b6e9061413f565b80601f0160208091040260200160405190810160405280929190818152602001828054611b9a9061413f565b8015611be75780601f10611bbc57610100808354040283529160200191611be7565b820191906000526020600020905b815481529060010190602001808311611bca57829003601f168201915b50505050508152602001600282018054611c009061413f565b80601f0160208091040260200160405190810160405280929190818152602001828054611c2c9061413f565b8015611c795780601f10611c4e57610100808354040283529160200191611c79565b820191906000526020600020905b815481529060010190602001808311611c5c57829003601f168201915b5050505050815260200160038201548152602001600482015481526020016005820154815250509050919050565b6000611cb1611dbe565b60070160008473ffffffffffffffffffffffffffffffffffffffff1673ffffffffffffffffffffffffffffffffffffffff16815260200190815260200160002060008373ffffffffffffffffffffffffffffffffffffffff1673ffffffffffffffffffffffffffffffffffffffff16815260200190815260200160002060009054906101000a900460ff16905092915050565b60007f7965db0b000000000000000000000000000000000000000000000000000000007bffffffffffffffffffffffffffffffffffffffffffffffffffffffff1916827bffffffffffffffffffffffffffffffffffffffffffffffffffffffff19161480611db75750611db682612c13565b5b9050919050565b6000807f2569078dfb4b0305704d3008e7403993ae9601b85f7ae5e742de3de8f8011c4090508091505090565b600081611df6611ff4565b11611eac57611e03611ff9565b821115611e3657611e2f611e15611dbe565b600401600084815260200190815260200160002054612c7d565b9050611ead565b611e3e611dbe565b60000154821015611eab5760005b6000611e56611dbe565b60040160008581526020019081526020016000205491508103611e845782611e7d90614aaa565b9250611e4c565b60007c01000000000000000000000000000000000000000000000000000000008216149150505b5b5b919050565b8060005260046000fd5b6000611ec783611539565b9050818015611f0957508073ffffffffffffffffffffffffffffffffffffffff16611ef0612185565b73ffffffffffffffffffffffffffffffffffffffff1614155b15611f3557611f1f81611f1a612185565b611ca7565b611f3457611f3363cfb3b94260e01b611eb2565b5b5b83611f3e611dbe565b600601600085815260200190815260200160002060000160006101000a81548173ffffffffffffffffffffffffffffffffffffffff021916908373ffffffffffffffffffffffffffffffffffffffff160217905550828473ffffffffffffffffffffffffffffffffffffffff168273ffffffffffffffffffffffffffffffffffffffff167f8c5be1e5ebec7d5bd14f71427d1e84f3dd0314c0f7b2291e5b200ac8c7c3b92560405160405180910390a450505050565b600090565b60007fffffffffffffffffffffffffffffffffffffffffffffffffffffffffffffffff905090565b60008161202c611ff4565b1161213f57612039611dbe565b6004016000838152602001908152602001600020549050612058611ff9565b82111561207d5761206881612c7d565b6121505761207c63df2d9b4260e01b611eb2565b5b600081036121165761208d611dbe565b6000015482106120a8576120a763df2d9b4260e01b611eb2565b5b5b6120b1611dbe565b60040160008360019003935083815260200190815260200160002054905060008103156121115760007c0100000000000000000000000000000000000000000000000000000000821603156121505761211063df2d9b4260e01b611eb2565b5b6120a9565b60007c010000000000000000000000000000000000000000000000000000000082160315612150575b61214f63df2d9b4260e01b611eb2565b5b919050565b6000806000612162611dbe565b600601600085815260200190815260200160002090508092508254915050915091565b600033905090565b600073ffffffffffffffffffffffffffffffffffffffff8316925073ffffffffffffffffffffffffffffffffffffffff821691508382148383141790509392505050565b50505050565b60008060e883901c905060e86121ee868684612cbe565b62ffffff16901b9150509392505050565b600073ffffffffffffffffffffffffffffffffffffffff83169250814260a01b178317905092915050565b50505050565b60007f02dd7bc7dec4dceedda775e58dd541e08a116c6c53815c0bd028192f7b626800905090565b612260611514565b15612297576040517fd93c066500000000000000000000000000000000000000000000000000000000815260040160405180910390fd5b565b60006122a3612cc7565b905060028160000154036122e3576040517f3ee5aeb500000000000000000000000000000000000000000000000000000000815260040160405180910390fd5b6002816000018190555050565b61230a828260405180602001604052806000815250612cef565b5050565b6000612318612cc7565b90506001816000018190555050565b6123388161233361243c565b612d7e565b50565b600080612346612230565b90506123528484611644565b61243057600181600001600086815260200190815260200160002060000160008573ffffffffffffffffffffffffffffffffffffffff1673ffffffffffffffffffffffffffffffffffffffff16815260200190815260200160002060006101000a81548160ff0219169083151502179055506123cc61243c565b73ffffffffffffffffffffffffffffffffffffffff168373ffffffffffffffffffffffffffffffffffffffff16857f2f8788117e7eff1d82e926ec794901d17c78024a50270940304540a733656f0d60405160405180910390a46001915050612436565b60009150505b92915050565b600033905090565b60008061244f612230565b905061245b8484611644565b1561253a57600081600001600086815260200190815260200160002060000160008573ffffffffffffffffffffffffffffffffffffffff1673ffffffffffffffffffffffffffffffffffffffff16815260200190815260200160002060006101000a81548160ff0219169083151502179055506124d661243c565b73ffffffffffffffffffffffffffffffffffffffff168373ffffffffffffffffffffffffffffffffffffffff16857ff6391f5c32d9c69d2a47ea670b442974b53935d1edc7fd64eb21e047a839171b60405160405180910390a46001915050612540565b60009150505b92915050565b61254e612dcf565b600061255861297c565b905060008160000160006101000a81548160ff0219169083151502179055507f5db9ee0a495bf2e6ff9c91a7834c1ba4fdd244a5e8aa4e537bd38aeae4b073aa6125a061243c565b6040516125ad919061382f565b60405180910390a150565b6000807fee151c8401928dc223602bb187aff91b9a56c7cae5476ef1b3287b085a16c85f90508091505090565b6000803090506000813b9050600081149250505090565b60007ff0c57e16840df040f15088dc2f81fe391c3923bec73e23a9662efc9c229c6a00905090565b61262c6125b8565b60000160019054906101000a900460ff1661267c576040517f08c379a000000000000000000000000000000000000000000000000000000000815260040161267390614b45565b60405180910390fd5b6126868282612e0f565b5050565b612692612edb565b565b61269c612edb565b6126a4612f1b565b565b6126ae612edb565b6126b6612f4f565b565b6126c0612edb565b565b7f000000000000000000000000000000000000000000000000000000000000000073ffffffffffffffffffffffffffffffffffffffff163073ffffffffffffffffffffffffffffffffffffffff16148061276f57507f000000000000000000000000000000000000000000000000000000000000000073ffffffffffffffffffffffffffffffffffffffff16612756612f70565b73ffffffffffffffffffffffffffffffffffffffff1614155b156127a6576040517fe07c8dba00000000000000000000000000000000000000000000000000000000815260040160405180910390fd5b565b7fa49807205ce4d355092ef5a8a18f56e8913cf4a201fbe287825b095693c217756127d281612327565b5050565b8173ffffffffffffffffffffffffffffffffffffffff166352d1902d6040518163ffffffff1660e01b8152600401602060405180830381865afa92505050801561283e57506040513d601f19601f8201168201806040525081019061283b9190614b7a565b60015b61287f57816040517f4c9c8ce3000000000000000000000000000000000000000000000000000000008152600401612876919061382f565b60405180910390fd5b7f360894a13ba1a3210667c828492db98dca3e2076cc3735a920a3ca505d382bbc60001b81146128e657806040517faa1d49a40000000000000000000000000000000000000000000000000000000081526004016128dd91906139a5565b60405180910390fd5b6128f08383612fc7565b505050565b7f000000000000000000000000000000000000000000000000000000000000000073ffffffffffffffffffffffffffffffffffffffff163073ffffffffffffffffffffffffffffffffffffffff161461297a576040517fe07c8dba00000000000000000000000000000000000000000000000000000000815260040160405180910390fd5b565b60007fcd5ed15c6e187e77e9aee88184c21f4f2182ab5827cb3b7e07fbedcd63f03300905090565b6129ac612258565b60006129b661297c565b905060018160000160006101000a81548160ff0219169083151502179055507f62e78cea01bee320cd4e420270b5ea74000d11b0c9f74754ebdbfc544b05a2586129fe61243c565b604051612a0b919061382f565b60405180910390a150565b60008373ffffffffffffffffffffffffffffffffffffffff1663150b7a02612a3c612185565b8786866040518563ffffffff1660e01b8152600401612a5e9493929190614bfc565b6020604051808303816000875af1925050508015612a9a57506040513d601f19601f82011682018060405250810190612a979190614c5d565b60015b612af2573d8060008114612aca576040519150601f19603f3d011682016040523d82523d6000602084013e612acf565b606091505b506000815103612aea57612ae963d1a57ed660e01b611eb2565b5b805181602001fd5b63150b7a0260e01b7bffffffffffffffffffffffffffffffffffffffffffffffffffffffff1916817bffffffffffffffffffffffffffffffffffffffffffffffffffffffff191614915050949350505050565b606060006001612b548461303a565b01905060008167ffffffffffffffff811115612b7357612b72613a0a565b5b6040519080825280601f01601f191660200182016040528015612ba55781602001600182028036833780820191505090505b509050600082602001820190505b600115612c08578080600190039150507f3031323334353637383961626364656600000000000000000000000000000000600a86061a8153600a8581612bfc57612bfb614c8a565b5b04945060008503612bb3575b819350505050919050565b60007f01ffc9a7000000000000000000000000000000000000000000000000000000007bffffffffffffffffffffffffffffffffffffffffffffffffffffffff1916827bffffffffffffffffffffffffffffffffffffffffffffffffffffffff1916149050919050565b60007c0100000000000000000000000000000000000000000000000000000000821673ffffffffffffffffffffffffffffffffffffffff8316119050919050565b60009392505050565b60007f9b779b17422d0df92223018b32b4d1fa46e071723d6817e2486d003becc55f00905090565b612cf9838361318d565b60008373ffffffffffffffffffffffffffffffffffffffff163b14612d79576000612d22611dbe565b600001549050600083820390505b612d436000868380600101945086612a16565b612d5857612d5763d1a57ed660e01b611eb2565b5b818110612d305781612d68611dbe565b6000015414612d7657600080fd5b50505b505050565b612d888282611644565b612dcb5780826040517fe2517d3f000000000000000000000000000000000000000000000000000000008152600401612dc2929190614cb9565b60405180910390fd5b5050565b612dd7611514565b612e0d576040517f8dfc202b00000000000000000000000000000000000000000000000000000000815260040160405180910390fd5b565b612e176125b8565b60000160019054906101000a900460ff16612e67576040517f08c379a0000000000000000000000000000000000000000000000000000000008152600401612e5e90614b45565b60405180910390fd5b81612e70611dbe565b6002019081612e7f9190614ce2565b5080612e89611dbe565b6003019081612e989190614ce2565b50612ea1611ff4565b612ea9611dbe565b60000181905550612eb8611ff4565b612ec0611ff9565b1015612ed757612ed663fed8210f60e01b611eb2565b5b5050565b612ee3613338565b612f19576040517fd7e6bcf800000000000000000000000000000000000000000000000000000000815260040160405180910390fd5b565b612f23612edb565b6000612f2d61297c565b905060008160000160006101000a81548160ff02191690831515021790555050565b612f57612edb565b6000612f61612cc7565b90506001816000018190555050565b6000612f9e7f360894a13ba1a3210667c828492db98dca3e2076cc3735a920a3ca505d382bbc60001b613358565b60000160009054906101000a900473ffffffffffffffffffffffffffffffffffffffff16905090565b612fd082613362565b8173ffffffffffffffffffffffffffffffffffffffff167fbc7cd75a20ee27fd9adebab32041f755214dbc6bffa90cc0225b39da2e5c2d3b60405160405180910390a260008151111561302d57613027828261342f565b50613036565b6130356134b3565b5b5050565b600080600090507a184f03e93ff9f4daa797ed6e38ed64bf6a1f0100000000000000008310613098577a184f03e93ff9f4daa797ed6e38ed64bf6a1f010000000000000000838161308e5761308d614c8a565b5b0492506040810190505b6d04ee2d6d415b85acef810000000083106130d5576d04ee2d6d415b85acef810000000083816130cb576130ca614c8a565b5b0492506020810190505b662386f26fc10000831061310457662386f26fc1000083816130fa576130f9614c8a565b5b0492506010810190505b6305f5e100831061312d576305f5e100838161312357613122614c8a565b5b0492506008810190505b612710831061315257612710838161314857613147614c8a565b5b0492506004810190505b60648310613175576064838161316b5761316a614c8a565b5b0492506002810190505b600a8310613184576001810190505b80915050919050565b6000613197611dbe565b600001549050600082036131b6576131b563b562e8dd60e01b611eb2565b5b6131c360008483856121d1565b6131e3836131d460008660006121d7565b6131dd856134f0565b176121ff565b6131eb611dbe565b600401600083815260200190815260200160002081905550600160406001901b178202613216611dbe565b60050160008573ffffffffffffffffffffffffffffffffffffffff1673ffffffffffffffffffffffffffffffffffffffff16815260200190815260200160002060008282540192505081905550600073ffffffffffffffffffffffffffffffffffffffff8473ffffffffffffffffffffffffffffffffffffffff16169050600081036132ad576132ac632e07630060e01b611eb2565b5b6000838301905060008390506132c1611ff9565b6001830311156132dc576132db6381647e3a60e01b611eb2565b5b5b808360007fddf252ad1be2c89b69c2b068fc378daa952ba7f163c4a11628f55a4df523b3ef600080a48181600101915081036132dd578161331c611dbe565b60000181905550505050613333600084838561222a565b505050565b60006133426125fc565b60000160089054906101000a900460ff16905090565b6000819050919050565b60008173ffffffffffffffffffffffffffffffffffffffff163b036133be57806040517f4c9c8ce30000000000000000000000000000000000000000000000000000000081526004016133b5919061382f565b60405180910390fd5b806133eb7f360894a13ba1a3210667c828492db98dca3e2076cc3735a920a3ca505d382bbc60001b613358565b60000160006101000a81548173ffffffffffffffffffffffffffffffffffffffff021916908373ffffffffffffffffffffffffffffffffffffffff16021790555050565b60606000808473ffffffffffffffffffffffffffffffffffffffff16846040516134599190614df0565b600060405180830381855af49150503d8060008114613494576040519150601f19603f3d011682016040523d82523d6000602084013e613499565b606091505b50915091506134a9858383613500565b9250505092915050565b60003411156134ee576040517fb398979f00000000000000000000000000000000000000000000000000000000815260040160405180910390fd5b565b60006001821460e11b9050919050565b606082613515576135108261358f565b613587565b6000825114801561353d575060008473ffffffffffffffffffffffffffffffffffffffff163b145b1561357f57836040517f9996b315000000000000000000000000000000000000000000000000000000008152600401613576919061382f565b60405180910390fd5b819050613588565b5b9392505050565b6000815111156135a25780518082602001fd5b6040517f1425ea4200000000000000000000000000000000000000000000000000000000815260040160405180910390fd5b6040518060c001604052806060815260200160608152602001606081526020016000815260200160008152602001600081525090565b6000604051905090565b600080fd5b600080fd5b60007fffffffff0000000000000000000000000000000000000000000000000000000082169050919050565b6136538161361e565b811461365e57600080fd5b50565b6000813590506136708161364a565b92915050565b60006020828403121561368c5761368b613614565b5b600061369a84828501613661565b91505092915050565b60008115159050919050565b6136b8816136a3565b82525050565b60006020820190506136d360008301846136af565b92915050565b600081519050919050565b600082825260208201905092915050565b60005b838110156137135780820151818401526020810190506136f8565b60008484015250505050565b6000601f19601f8301169050919050565b600061373b826136d9565b61374581856136e4565b93506137558185602086016136f5565b61375e8161371f565b840191505092915050565b600060208201905081810360008301526137838184613730565b905092915050565b6000819050919050565b61379e8161378b565b81146137a957600080fd5b50565b6000813590506137bb81613795565b92915050565b6000602082840312156137d7576137d6613614565b5b60006137e5848285016137ac565b91505092915050565b600073ffffffffffffffffffffffffffffffffffffffff82169050919050565b6000613819826137ee565b9050919050565b6138298161380e565b82525050565b60006020820190506138446000830184613820565b92915050565b6138538161380e565b811461385e57600080fd5b50565b6000813590506138708161384a565b92915050565b6000806040838503121561388d5761388c613614565b5b600061389b85828601613861565b92505060206138ac858286016137ac565b9150509250929050565b6138bf8161378b565b82525050565b60006020820190506138da60008301846138b6565b92915050565b6000806000606084860312156138f9576138f8613614565b5b600061390786828701613861565b935050602061391886828701613861565b9250506040613929868287016137ac565b9150509250925092565b6000819050919050565b61394681613933565b811461395157600080fd5b50565b6000813590506139638161393d565b92915050565b60006020828403121561397f5761397e613614565b5b600061398d84828501613954565b91505092915050565b61399f81613933565b82525050565b60006020820190506139ba6000830184613996565b92915050565b600080604083850312156139d7576139d6613614565b5b60006139e585828601613954565b92505060206139f685828601613861565b9150509250929050565b600080fd5b600080fd5b7f4e487b7100000000000000000000000000000000000000000000000000000000600052604160045260246000fd5b613a428261371f565b810181811067ffffffffffffffff82111715613a6157613a60613a0a565b5b80604052505050565b6000613a7461360a565b9050613a808282613a39565b919050565b600067ffffffffffffffff821115613aa057613a9f613a0a565b5b613aa98261371f565b9050602081019050919050565b82818337600083830152505050565b6000613ad8613ad384613a85565b613a6a565b905082815260208101848484011115613af457613af3613a05565b5b613aff848285613ab6565b509392505050565b600082601f830112613b1c57613b1b613a00565b5b8135613b2c848260208601613ac5565b91505092915050565b60008060408385031215613b4c57613b4b613614565b5b600083013567ffffffffffffffff811115613b6a57613b69613619565b5b613b7685828601613b07565b925050602083013567ffffffffffffffff811115613b9757613b96613619565b5b613ba385828601613b07565b9150509250929050565b600067ffffffffffffffff821115613bc857613bc7613a0a565b5b613bd18261371f565b9050602081019050919050565b6000613bf1613bec84613bad565b613a6a565b905082815260208101848484011115613c0d57613c0c613a05565b5b613c18848285613ab6565b509392505050565b600082601f830112613c3557613c34613a00565b5b8135613c45848260208601613bde565b91505092915050565b60008060408385031215613c6557613c64613614565b5b6000613c7385828601613861565b925050602083013567ffffffffffffffff811115613c9457613c93613619565b5b613ca085828601613c20565b9150509250929050565b6000613cb5826137ee565b9050919050565b613cc581613caa565b8114613cd057600080fd5b50565b600081359050613ce281613cbc565b92915050565b600060208284031215613cfe57613cfd613614565b5b6000613d0c84828501613cd3565b91505092915050565b600080fd5b600080fd5b60008083601f840112613d3557613d34613a00565b5b8235905067ffffffffffffffff811115613d5257613d51613d15565b5b602083019150836001820283011115613d6e57613d6d613d1a565b5b9250929050565b600080600060408486031215613d8e57613d8d613614565b5b6000613d9c868287016137ac565b935050602084013567ffffffffffffffff811115613dbd57613dbc613619565b5b613dc986828701613d1f565b92509250509250925092565b60008060208385031215613dec57613deb613614565b5b600083013567ffffffffffffffff811115613e0a57613e09613619565b5b613e1685828601613d1f565b92509250509250929050565b600060208284031215613e3857613e37613614565b5b6000613e4684828501613861565b91505092915050565b613e58816136a3565b8114613e6357600080fd5b50565b600081359050613e7581613e4f565b92915050565b60008060408385031215613e9257613e91613614565b5b6000613ea085828601613861565b9250506020613eb185828601613e66565b9150509250929050565b60008060008060808587031215613ed557613ed4613614565b5b6000613ee387828801613861565b9450506020613ef487828801613861565b9350506040613f05878288016137ac565b925050606085013567ffffffffffffffff811115613f2657613f25613619565b5b613f3287828801613c20565b91505092959194509250565b600080fd5b600060c08284031215613f5957613f58613f3e565b5b81905092915050565b60008060408385031215613f7957613f78613614565b5b6000613f87858286016137ac565b925050602083013567ffffffffffffffff811115613fa857613fa7613619565b5b613fb485828601613f43565b9150509250929050565b600082825260208201905092915050565b6000613fda826136d9565b613fe48185613fbe565b9350613ff48185602086016136f5565b613ffd8161371f565b840191505092915050565b6140118161378b565b82525050565b600060c08301600083015184820360008601526140348282613fcf565b9150506020830151848203602086015261404e8282613fcf565b915050604083015184820360408601526140688282613fcf565b915050606083015161407d6060860182614008565b5060808301516140906080860182614008565b5060a08301516140a360a0860182614008565b508091505092915050565b600060208201905081810360008301526140c88184614017565b905092915050565b600080604083850312156140e7576140e6613614565b5b60006140f585828601613861565b925050602061410685828601613861565b9150509250929050565b7f4e487b7100000000000000000000000000000000000000000000000000000000600052602260045260246000fd5b6000600282049050600182168061415757607f821691505b60208210810361416a57614169614110565b5b50919050565b7f4e487b7100000000000000000000000000000000000000000000000000000000600052601160045260246000fd5b60006141aa8261378b565b91506141b58361378b565b92508282019050808211156141cd576141cc614170565b5b92915050565b60006141de8261378b565b91506141e98361378b565b92508282026141f78161378b565b9150828204841483151761420e5761420d614170565b5b5092915050565b7f455243373231415f5f496e697469616c697a61626c653a20636f6e747261637460008201527f20697320616c726561647920696e697469616c697a6564000000000000000000602082015250565b60006142716037836136e4565b915061427c82614215565b604082019050919050565b600060208201905081810360008301526142a081614264565b9050919050565b6000819050919050565b600067ffffffffffffffff82169050919050565b6000819050919050565b60006142ea6142e56142e0846142a7565b6142c5565b6142b1565b9050919050565b6142fa816142cf565b82525050565b600060208201905061431560008301846142f1565b92915050565b600082905092915050565b60008190508160005260206000209050919050565b60006020601f8301049050919050565b600082821b905092915050565b6000600883026143887fffffffffffffffffffffffffffffffffffffffffffffffffffffffffffffffff8261434b565b614392868361434b565b95508019841693508086168417925050509392505050565b60006143c56143c06143bb8461378b565b6142c5565b61378b565b9050919050565b6000819050919050565b6143df836143aa565b6143f36143eb826143cc565b848454614358565b825550505050565b600090565b6144086143fb565b6144138184846143d6565b505050565b5b818110156144375761442c600082614400565b600181019050614419565b5050565b601f82111561447c5761444d81614326565b6144568461433b565b81016020851015614465578190505b6144796144718561433b565b830182614418565b50505b505050565b600082821c905092915050565b600061449f60001984600802614481565b1980831691505092915050565b60006144b8838361448e565b9150826002028217905092915050565b6144d2838361431b565b67ffffffffffffffff8111156144eb576144ea613a0a565b5b6144f5825461413f565b61450082828561443b565b6000601f83116001811461452f576000841561451d578287013590505b61452785826144ac565b86555061458f565b601f19841661453d86614326565b60005b8281101561456557848901358255600182019150602085019450602081019050614540565b86831015614582578489013561457e601f89168261448e565b8355505b6001600288020188555050505b50505050505050565b60006145a483856136e4565b93506145b1838584613ab6565b6145ba8361371f565b840190509392505050565b600060208201905081810360008301526145e0818486614598565b90509392505050565b600080fd5b600080fd5b600080fd5b60008083356001602003843603038112614615576146146145e9565b5b80840192508235915067ffffffffffffffff821115614637576146366145ee565b5b602083019250600182023603831315614653576146526145f3565b5b509250929050565b6146668383836144c8565b505050565b6000813561467881613795565b80915050919050565b60008160001b9050919050565b60007fffffffffffffffffffffffffffffffffffffffffffffffffffffffffffffffff6146ba84614681565b9350801983169250808416831791505092915050565b6146d9826143aa565b6146ec6146e5826143cc565b835461468e565b8255505050565b600081016000830161470581856145f8565b61471081838661465b565b50505050600181016020830161472681856145f8565b61473181838661465b565b50505050600281016040830161474781856145f8565b61475281838661465b565b505050506003810160608301806147688161466b565b905061477481846146d0565b5050506004810160808301806147898161466b565b905061479581846146d0565b5050506005810160a08301806147aa8161466b565b90506147b681846146d0565b5050505050565b6147c782826146f3565b5050565b600080fd5b600080fd5b600080fd5b600080833560016020038436030381126147f7576147f66147d5565b5b83810192508235915060208301925067ffffffffffffffff82111561481f5761481e6147cb565b5b600182023603831315614835576148346147d0565b5b509250929050565b60006148498385613fbe565b9350614856838584613ab6565b61485f8361371f565b840190509392505050565b600061487960208401846137ac565b905092915050565b600060c0830161489460008401846147da565b85830360008701526148a783828461483d565b925050506148b860208401846147da565b85830360208701526148cb83828461483d565b925050506148dc60408401846147da565b85830360408701526148ef83828461483d565b92505050614900606084018461486a565b61490d6060860182614008565b5061491b608084018461486a565b6149286080860182614008565b5061493660a084018461486a565b61494360a0860182614008565b508091505092915050565b600060208201905081810360008301526149688184614881565b905092915050565b600081905092915050565b600081546149888161413f565b6149928186614970565b945060018216600081146149ad57600181146149c2576149f5565b60ff19831686528115158202860193506149f5565b6149cb85614326565b60005b838110156149ed578154818901526001820191506020810190506149ce565b838801955050505b50505092915050565b6000614a09826136d9565b614a138185614970565b9350614a238185602086016136f5565b80840191505092915050565b7f2e6a736f6e000000000000000000000000000000000000000000000000000000600082015250565b6000614a65600583614970565b9150614a7082614a2f565b600582019050919050565b6000614a87828561497b565b9150614a9382846149fe565b9150614a9e82614a58565b91508190509392505050565b6000614ab58261378b565b915060008203614ac857614ac7614170565b5b600182039050919050565b7f455243373231415f5f496e697469616c697a61626c653a20636f6e747261637460008201527f206973206e6f7420696e697469616c697a696e67000000000000000000000000602082015250565b6000614b2f6034836136e4565b9150614b3a82614ad3565b604082019050919050565b60006020820190508181036000830152614b5e81614b22565b9050919050565b600081519050614b748161393d565b92915050565b600060208284031215614b9057614b8f613614565b5b6000614b9e84828501614b65565b91505092915050565b600081519050919050565b600082825260208201905092915050565b6000614bce82614ba7565b614bd88185614bb2565b9350614be88185602086016136f5565b614bf18161371f565b840191505092915050565b6000608082019050614c116000830187613820565b614c1e6020830186613820565b614c2b60408301856138b6565b8181036060830152614c3d8184614bc3565b905095945050505050565b600081519050614c578161364a565b92915050565b600060208284031215614c7357614c72613614565b5b6000614c8184828501614c48565b91505092915050565b7f4e487b7100000000000000000000000000000000000000000000000000000000600052601260045260246000fd5b6000604082019050614cce6000830185613820565b614cdb6020830184613996565b9392505050565b614ceb826136d9565b67ffffffffffffffff811115614d0457614d03613a0a565b5b614d0e825461413f565b614d1982828561443b565b600060209050601f831160018114614d4c5760008415614d3a578287015190505b614d4485826144ac565b865550614dac565b601f198416614d5a86614326565b60005b82811015614d8257848901518255600182019150602085019450602081019050614d5d565b86831015614d9f5784890151614d9b601f89168261448e565b8355505b6001600288020188555050505b505050505050565b600081905092915050565b6000614dca82614ba7565b614dd48185614db4565b9350614de48185602086016136f5565b80840191505092915050565b6000614dfc8284614dbf565b91508190509291505056fea26469706673582212209aa22684d5f48f8d212f61be2843d287b28de2d35b0c37e71ca2e68bfa997d6464736f6c63430008180033",
  "linkReferences": {},
  "deployedLinkReferences": {}
}