{
  "_format": "hh-sol-artifact-1",
  "contractName": "MadeForRats",
  "sourceName": "contracts/MadeForRats.sol",
  "abi": [
    {
      "inputs": [],
      "name": "AccessControlBadConfirmation",
      "type": "error"
    },
    {
      "inputs": [
        {
          "internalType": "address",
          "name": "account",
          "type": "address"
        },
        {
          "internalType": "bytes32",
          "name": "neededRole",
          "type": "bytes32"
        }
      ],
      "name": "AccessControlUnauthorizedAccount",
      "type": "error"
    },
    {
      "inputs": [
        {
          "internalType": "address",
          "name": "target",
          "type": "address"
        }
      ],
      "name": "AddressEmptyCode",
      "type": "error"
    },
    {
      "inputs": [],
      "name": "ApprovalCallerNotOwnerNorApproved",
      "type": "error"
    },
    {
      "inputs": [],
      "name": "ApprovalQueryForNonexistentToken",
      "type": "error"
    },
    {
      "inputs": [],
      "name": "BalanceQueryForZeroAddress",
      "type": "error"
    },
    {
      "inputs": [
        {
          "internalType": "address",
          "name": "implementation",
          "type": "address"
        }
      ],
      "name": "ERC1967InvalidImplementation",
      "type": "error"
    },
    {
      "inputs": [],
      "name": "ERC1967NonPayable",
      "type": "error"
    },
    {
      "inputs": [
        {
          "internalType": "uint256",
          "name": "numerator",
          "type": "uint256"
        },
        {
          "internalType": "uint256",
          "name": "denominator",
          "type": "uint256"
        }
      ],
      "name": "ERC2981InvalidDefaultRoyalty",
      "type": "error"
    },
    {
      "inputs": [
        {
          "internalType": "address",
          "name": "receiver",
          "type": "address"
        }
      ],
      "name": "ERC2981InvalidDefaultRoyaltyReceiver",
      "type": "error"
    },
    {
      "inputs": [
        {
          "internalType": "uint256",
          "name": "tokenId",
          "type": "uint256"
        },
        {
          "internalType": "uint256",
          "name": "numerator",
          "type": "uint256"
        },
        {
          "internalType": "uint256",
          "name": "denominator",
          "type": "uint256"
        }
      ],
      "name": "ERC2981InvalidTokenRoyalty",
      "type": "error"
    },
    {
      "inputs": [
        {
          "internalType": "uint256",
          "name": "tokenId",
          "type": "uint256"
        },
        {
          "internalType": "address",
          "name": "receiver",
          "type": "address"
        }
      ],
      "name": "ERC2981InvalidTokenRoyaltyReceiver",
      "type": "error"
    },
    {
      "inputs": [],
      "name": "EnforcedPause",
      "type": "error"
    },
    {
      "inputs": [],
      "name": "ExpectedPause",
      "type": "error"
    },
    {
      "inputs": [],
      "name": "FailedCall",
      "type": "error"
    },
    {
      "inputs": [],
      "name": "FallbackNotAllowed",
      "type": "error"
    },
    {
      "inputs": [
        {
          "internalType": "uint256",
          "name": "balance",
          "type": "uint256"
        },
        {
          "internalType": "uint256",
          "name": "needed",
          "type": "uint256"
        }
      ],
      "name": "InsufficientBalance",
      "type": "error"
    },
    {
      "inputs": [],
      "name": "InsufficientPayment",
      "type": "error"
    },
    {
      "inputs": [],
      "name": "InvalidInitialization",
      "type": "error"
    },
    {
      "inputs": [],
      "name": "InvalidQueryRange",
      "type": "error"
    },
    {
      "inputs": [],
      "name": "InvalidToken",
      "type": "error"
    },
    {
      "inputs": [],
      "name": "MaxSupplyReached",
      "type": "error"
    },
    {
      "inputs": [],
      "name": "MaxWalletLimit",
      "type": "error"
    },
    {
      "inputs": [],
      "name": "MetadataIsFrozen",
      "type": "error"
    },
    {
      "inputs": [],
      "name": "MintERC2309QuantityExceedsLimit",
      "type": "error"
    },
    {
      "inputs": [],
      "name": "MintToZeroAddress",
      "type": "error"
    },
    {
      "inputs": [],
      "name": "MintZeroQuantity",
      "type": "error"
    },
    {
      "inputs": [],
      "name": "NotAuthorized",
      "type": "error"
    },
    {
      "inputs": [],
      "name": "NotCompatibleWithSpotMints",
      "type": "error"
    },
    {
      "inputs": [],
      "name": "NotInitializing",
      "type": "error"
    },
    {
      "inputs": [],
      "name": "OwnerQueryForNonexistentToken",
      "type": "error"
    },
    {
      "inputs": [],
      "name": "OwnershipNotInitializedForExtraData",
      "type": "error"
    },
    {
      "inputs": [],
      "name": "ReentrancyGuardReentrantCall",
      "type": "error"
    },
    {
      "inputs": [],
      "name": "SequentialMintExceedsLimit",
      "type": "error"
    },
    {
      "inputs": [],
      "name": "SequentialUpToTooSmall",
      "type": "error"
    },
    {
      "inputs": [],
      "name": "SpotMintTokenIdTooSmall",
      "type": "error"
    },
    {
      "inputs": [],
      "name": "TokenAlreadyExists",
      "type": "error"
    },
    {
      "inputs": [],
      "name": "TransferCallerNotOwnerNorApproved",
      "type": "error"
    },
    {
      "inputs": [],
      "name": "TransferFromIncorrectOwner",
      "type": "error"
    },
    {
      "inputs": [],
      "name": "TransferToNonERC721ReceiverImplementer",
      "type": "error"
    },
    {
      "inputs": [],
      "name": "TransferToZeroAddress",
      "type": "error"
    },
    {
      "inputs": [],
      "name": "URIQueryForNonexistentToken",
      "type": "error"
    },
    {
      "inputs": [],
      "name": "UUPSUnauthorizedCallContext",
      "type": "error"
    },
    {
      "inputs": [
        {
          "internalType": "bytes32",
          "name": "slot",
          "type": "bytes32"
        }
      ],
      "name": "UUPSUnsupportedProxiableUUID",
      "type": "error"
    },
    {
      "inputs": [],
      "name": "ZeroAddress",
      "type": "error"
    },
    {
      "anonymous": false,
      "inputs": [
        {
          "indexed": true,
          "internalType": "address",
          "name": "owner",
          "type": "address"
        },
        {
          "indexed": true,
          "internalType": "address",
          "name": "approved",
          "type": "address"
        },
        {
          "indexed": true,
          "internalType": "uint256",
          "name": "tokenId",
          "type": "uint256"
        }
      ],
      "name": "Approval",
      "type": "event"
    },
    {
      "anonymous": false,
      "inputs": [
        {
          "indexed": true,
          "internalType": "address",
          "name": "owner",
          "type": "address"
        },
        {
          "indexed": true,
          "internalType": "address",
          "name": "operator",
          "type": "address"
        },
        {
          "indexed": false,
          "internalType": "bool",
          "name": "approved",
          "type": "bool"
        }
      ],
      "name": "ApprovalForAll",
      "type": "event"
    },
    {
      "anonymous": false,
      "inputs": [
        {
          "indexed": false,
          "internalType": "string",
          "name": "baseURI",
          "type": "string"
        }
      ],
      "name": "BaseURISet",
      "type": "event"
    },
    {
      "anonymous": false,
      "inputs": [
        {
          "indexed": false,
          "internalType": "string",
          "name": "newName",
          "type": "string"
        },
        {
          "indexed": false,
          "internalType": "string",
          "name": "newSymbol",
          "type": "string"
        }
      ],
      "name": "CollectionDetailsUpdated",
      "type": "event"
    },
    {
      "anonymous": false,
      "inputs": [
        {
          "indexed": true,
          "internalType": "uint256",
          "name": "fromTokenId",
          "type": "uint256"
        },
        {
          "indexed": false,
          "internalType": "uint256",
          "name": "toTokenId",
          "type": "uint256"
        },
        {
          "indexed": true,
          "internalType": "address",
          "name": "from",
          "type": "address"
        },
        {
          "indexed": true,
          "internalType": "address",
          "name": "to",
          "type": "address"
        }
      ],
      "name": "ConsecutiveTransfer",
      "type": "event"
    },
    {
      "anonymous": false,
      "inputs": [],
      "name": "CraftingInitialized",
      "type": "event"
    },
    {
      "anonymous": false,
      "inputs": [
        {
          "indexed": false,
          "internalType": "uint64",
          "name": "version",
          "type": "uint64"
        }
      ],
      "name": "Initialized",
      "type": "event"
    },
    {
      "anonymous": false,
      "inputs": [
        {
          "indexed": false,
          "internalType": "uint256",
          "name": "newLimit",
          "type": "uint256"
        }
      ],
      "name": "MaxWalletHoldingsUpdated",
      "type": "event"
    },
    {
      "anonymous": false,
      "inputs": [
        {
          "indexed": true,
          "internalType": "uint256",
          "name": "tokenId",
          "type": "uint256"
        }
      ],
      "name": "MetadataFrozen",
      "type": "event"
    },
    {
      "anonymous": false,
      "inputs": [
        {
          "indexed": true,
          "internalType": "uint256",
          "name": "tokenId",
          "type": "uint256"
        },
        {
          "indexed": false,
          "internalType": "string",
          "name": "metadataURI",
          "type": "string"
        }
      ],
      "name": "MetadataUpdated",
      "type": "event"
    },
    {
      "anonymous": false,
      "inputs": [
        {
          "indexed": false,
          "internalType": "uint256",
          "name": "newPrice",
          "type": "uint256"
        }
      ],
      "name": "MintPriceUpdated",
      "type": "event"
    },
    {
      "anonymous": false,
      "inputs": [
        {
          "indexed": true,
          "internalType": "address",
          "name": "to",
          "type": "address"
        },
        {
          "indexed": false,
          "internalType": "uint256",
          "name": "quantity",
          "type": "uint256"
        }
      ],
      "name": "Minted",
      "type": "event"
    },
    {
      "anonymous": false,
      "inputs": [
        {
          "indexed": false,
          "internalType": "address",
          "name": "account",
          "type": "address"
        }
      ],
      "name": "Paused",
      "type": "event"
    },
    {
      "anonymous": false,
      "inputs": [
        {
          "indexed": true,
          "internalType": "address",
          "name": "sender",
          "type": "address"
        },
        {
          "indexed": false,
          "internalType": "uint256",
          "name": "amount",
          "type": "uint256"
        }
      ],
      "name": "Received",
      "type": "event"
    },
    {
      "anonymous": false,
      "inputs": [
        {
          "indexed": true,
          "internalType": "bytes32",
          "name": "role",
          "type": "bytes32"
        },
        {
          "indexed": true,
          "internalType": "bytes32",
          "name": "previousAdminRole",
          "type": "bytes32"
        },
        {
          "indexed": true,
          "internalType": "bytes32",
          "name": "newAdminRole",
          "type": "bytes32"
        }
      ],
      "name": "RoleAdminChanged",
      "type": "event"
    },
    {
      "anonymous": false,
      "inputs": [
        {
          "indexed": true,
          "internalType": "bytes32",
          "name": "role",
          "type": "bytes32"
        },
        {
          "indexed": true,
          "internalType": "address",
          "name": "account",
          "type": "address"
        },
        {
          "indexed": true,
          "internalType": "address",
          "name": "sender",
          "type": "address"
        }
      ],
      "name": "RoleGranted",
      "type": "event"
    },
    {
      "anonymous": false,
      "inputs": [
        {
          "indexed": true,
          "internalType": "bytes32",
          "name": "role",
          "type": "bytes32"
        },
        {
          "indexed": true,
          "internalType": "address",
          "name": "account",
          "type": "address"
        },
        {
          "indexed": true,
          "internalType": "address",
          "name": "sender",
          "type": "address"
        }
      ],
      "name": "RoleRevoked",
      "type": "event"
    },
    {
      "anonymous": false,
      "inputs": [
        {
          "indexed": true,
          "internalType": "uint256",
          "name": "tokenId",
          "type": "uint256"
        },
        {
          "components": [
            {
              "internalType": "string",
              "name": "code",
              "type": "string"
            },
            {
              "internalType": "string",
              "name": "artVersion",
              "type": "string"
            },
            {
              "internalType": "string",
              "name": "metadataURI",
              "type": "string"
            },
            {
              "internalType": "uint256",
              "name": "level",
              "type": "uint256"
            },
            {
              "internalType": "uint256",
              "name": "power",
              "type": "uint256"
            },
            {
              "internalType": "uint256",
              "name": "rarity",
              "type": "uint256"
            }
          ],
          "indexed": false,
          "internalType": "struct MadeForRats.Traits",
          "name": "traits",
          "type": "tuple"
        }
      ],
      "name": "TraitsUpdated",
      "type": "event"
    },
    {
      "anonymous": false,
      "inputs": [
        {
          "indexed": true,
          "internalType": "address",
          "name": "from",
          "type": "address"
        },
        {
          "indexed": true,
          "internalType": "address",
          "name": "to",
          "type": "address"
        },
        {
          "indexed": true,
          "internalType": "uint256",
          "name": "tokenId",
          "type": "uint256"
        }
      ],
      "name": "Transfer",
      "type": "event"
    },
    {
      "anonymous": false,
      "inputs": [
        {
          "indexed": false,
          "internalType": "address",
          "name": "account",
          "type": "address"
        }
      ],
      "name": "Unpaused",
      "type": "event"
    },
    {
      "anonymous": false,
      "inputs": [
        {
          "indexed": true,
          "internalType": "address",
          "name": "implementation",
          "type": "address"
        }
      ],
      "name": "Upgraded",
      "type": "event"
    },
    {
      "anonymous": false,
      "inputs": [
        {
          "indexed": true,
          "internalType": "address",
          "name": "recipient",
          "type": "address"
        },
        {
          "indexed": false,
          "internalType": "uint256",
          "name": "amount",
          "type": "uint256"
        }
      ],
      "name": "Withdraw",
      "type": "event"
    },
    {
      "stateMutability": "payable",
      "type": "fallback"
    },
    {
      "inputs": [],
      "name": "ADMIN_ROLE",
      "outputs": [
        {
          "internalType": "bytes32",
          "name": "",
          "type": "bytes32"
        }
      ],
      "stateMutability": "view",
      "type": "function"
    },
    {
      "inputs": [],
      "name": "CRAFTER_ROLE",
      "outputs": [
        {
          "internalType": "bytes32",
          "name": "",
          "type": "bytes32"
        }
      ],
      "stateMutability": "view",
      "type": "function"
    },
    {
      "inputs": [],
      "name": "DEFAULT_ADMIN_ROLE",
      "outputs": [
        {
          "internalType": "bytes32",
          "name": "",
          "type": "bytes32"
        }
      ],
      "stateMutability": "view",
      "type": "function"
    },
    {
      "inputs": [],
      "name": "MAX_SUPPLY",
      "outputs": [
        {
          "internalType": "uint256",
          "name": "",
          "type": "uint256"
        }
      ],
      "stateMutability": "view",
      "type": "function"
    },
    {
      "inputs": [],
      "name": "UPGRADE_INTERFACE_VERSION",
      "outputs": [
        {
          "internalType": "string",
          "name": "",
          "type": "string"
        }
      ],
      "stateMutability": "view",
      "type": "function"
    },
    {
      "inputs": [
        {
          "internalType": "address",
          "name": "to",
          "type": "address"
        },
        {
          "internalType": "uint256",
          "name": "quantity",
          "type": "uint256"
        }
      ],
      "name": "adminMint",
      "outputs": [],
      "stateMutability": "nonpayable",
      "type": "function"
    },
    {
      "inputs": [
        {
          "internalType": "address",
          "name": "to",
          "type": "address"
        },
        {
          "internalType": "uint256",
          "name": "tokenId",
          "type": "uint256"
        }
      ],
      "name": "approve",
      "outputs": [],
      "stateMutability": "payable",
      "type": "function"
    },
    {
      "inputs": [
        {
          "internalType": "address",
          "name": "owner",
          "type": "address"
        }
      ],
      "name": "balanceOf",
      "outputs": [
        {
          "internalType": "uint256",
          "name": "",
          "type": "uint256"
        }
      ],
      "stateMutability": "view",
      "type": "function"
    },
    {
      "inputs": [
        {
          "internalType": "uint256",
          "name": "tokenId",
          "type": "uint256"
        }
      ],
      "name": "explicitOwnershipOf",
      "outputs": [
        {
          "components": [
            {
              "internalType": "address",
              "name": "addr",
              "type": "address"
            },
            {
              "internalType": "uint64",
              "name": "startTimestamp",
              "type": "uint64"
            },
            {
              "internalType": "bool",
              "name": "burned",
              "type": "bool"
            },
            {
              "internalType": "uint24",
              "name": "extraData",
              "type": "uint24"
            }
          ],
          "internalType": "struct IERC721AUpgradeable.TokenOwnership",
          "name": "ownership",
          "type": "tuple"
        }
      ],
      "stateMutability": "view",
      "type": "function"
    },
    {
      "inputs": [
        {
          "internalType": "uint256[]",
          "name": "tokenIds",
          "type": "uint256[]"
        }
      ],
      "name": "explicitOwnershipsOf",
      "outputs": [
        {
          "components": [
            {
              "internalType": "address",
              "name": "addr",
              "type": "address"
            },
            {
              "internalType": "uint64",
              "name": "startTimestamp",
              "type": "uint64"
            },
            {
              "internalType": "bool",
              "name": "burned",
              "type": "bool"
            },
            {
              "internalType": "uint24",
              "name": "extraData",
              "type": "uint24"
            }
          ],
          "internalType": "struct IERC721AUpgradeable.TokenOwnership[]",
          "name": "",
          "type": "tuple[]"
        }
      ],
      "stateMutability": "view",
      "type": "function"
    },
    {
      "inputs": [
        {
          "internalType": "uint256",
          "name": "tokenId",
          "type": "uint256"
        }
      ],
      "name": "freezeMetadata",
      "outputs": [],
      "stateMutability": "nonpayable",
      "type": "function"
    },
    {
      "inputs": [
        {
          "internalType": "uint256",
          "name": "tokenId",
          "type": "uint256"
        }
      ],
      "name": "getApproved",
      "outputs": [
        {
          "internalType": "address",
          "name": "",
          "type": "address"
        }
      ],
      "stateMutability": "view",
      "type": "function"
    },
    {
      "inputs": [
        {
          "internalType": "bytes32",
          "name": "role",
          "type": "bytes32"
        }
      ],
      "name": "getRoleAdmin",
      "outputs": [
        {
          "internalType": "bytes32",
          "name": "",
          "type": "bytes32"
        }
      ],
      "stateMutability": "view",
      "type": "function"
    },
    {
      "inputs": [
        {
          "internalType": "uint256",
          "name": "tokenId",
          "type": "uint256"
        }
      ],
      "name": "getTraits",
      "outputs": [
        {
          "components": [
            {
              "internalType": "string",
              "name": "code",
              "type": "string"
            },
            {
              "internalType": "string",
              "name": "artVersion",
              "type": "string"
            },
            {
              "internalType": "string",
              "name": "metadataURI",
              "type": "string"
            },
            {
              "internalType": "uint256",
              "name": "level",
              "type": "uint256"
            },
            {
              "internalType": "uint256",
              "name": "power",
              "type": "uint256"
            },
            {
              "internalType": "uint256",
              "name": "rarity",
              "type": "uint256"
            }
          ],
          "internalType": "struct MadeForRats.Traits",
          "name": "",
          "type": "tuple"
        }
      ],
      "stateMutability": "view",
      "type": "function"
    },
    {
      "inputs": [
        {
          "internalType": "bytes32",
          "name": "role",
          "type": "bytes32"
        },
        {
          "internalType": "address",
          "name": "account",
          "type": "address"
        }
      ],
      "name": "grantRole",
      "outputs": [],
      "stateMutability": "nonpayable",
      "type": "function"
    },
    {
      "inputs": [
        {
          "internalType": "bytes32",
          "name": "role",
          "type": "bytes32"
        },
        {
          "internalType": "address",
          "name": "account",
          "type": "address"
        }
      ],
      "name": "hasRole",
      "outputs": [
        {
          "internalType": "bool",
          "name": "",
          "type": "bool"
        }
      ],
      "stateMutability": "view",
      "type": "function"
    },
    {
      "inputs": [
        {
          "internalType": "string",
          "name": "name_",
          "type": "string"
        },
        {
          "internalType": "string",
          "name": "symbol_",
          "type": "string"
        }
      ],
      "name": "initialize",
      "outputs": [],
      "stateMutability": "nonpayable",
      "type": "function"
    },
    {
      "inputs": [
        {
          "internalType": "address",
          "name": "owner",
          "type": "address"
        },
        {
          "internalType": "address",
          "name": "operator",
          "type": "address"
        }
      ],
      "name": "isApprovedForAll",
      "outputs": [
        {
          "internalType": "bool",
          "name": "",
          "type": "bool"
        }
      ],
      "stateMutability": "view",
      "type": "function"
    },
    {
      "inputs": [],
      "name": "maxWalletHoldings",
      "outputs": [
        {
          "internalType": "uint256",
          "name": "",
          "type": "uint256"
        }
      ],
      "stateMutability": "view",
      "type": "function"
    },
    {
      "inputs": [],
      "name": "mintPrice",
      "outputs": [
        {
          "internalType": "uint256",
          "name": "",
          "type": "uint256"
        }
      ],
      "stateMutability": "view",
      "type": "function"
    },
    {
      "inputs": [],
      "name": "name",
      "outputs": [
        {
          "internalType": "string",
          "name": "",
          "type": "string"
        }
      ],
      "stateMutability": "view",
      "type": "function"
    },
    {
      "inputs": [
        {
          "internalType": "uint256",
          "name": "tokenId",
          "type": "uint256"
        }
      ],
      "name": "ownerOf",
      "outputs": [
        {
          "internalType": "address",
          "name": "",
          "type": "address"
        }
      ],
      "stateMutability": "view",
      "type": "function"
    },
    {
      "inputs": [],
      "name": "pause",
      "outputs": [],
      "stateMutability": "nonpayable",
      "type": "function"
    },
    {
      "inputs": [],
      "name": "paused",
      "outputs": [
        {
          "internalType": "bool",
          "name": "",
          "type": "bool"
        }
      ],
      "stateMutability": "view",
      "type": "function"
    },
    {
      "inputs": [],
      "name": "proxiableUUID",
      "outputs": [
        {
          "internalType": "bytes32",
          "name": "",
          "type": "bytes32"
        }
      ],
      "stateMutability": "view",
      "type": "function"
    },
    {
      "inputs": [
        {
          "internalType": "uint256",
          "name": "quantity",
          "type": "uint256"
        }
      ],
      "name": "publicMint",
      "outputs": [],
      "stateMutability": "payable",
      "type": "function"
    },
    {
      "inputs": [
        {
          "internalType": "bytes32",
          "name": "role",
          "type": "bytes32"
        },
        {
          "internalType": "address",
          "name": "callerConfirmation",
          "type": "address"
        }
      ],
      "name": "renounceRole",
      "outputs": [],
      "stateMutability": "nonpayable",
      "type": "function"
    },
    {
      "inputs": [
        {
          "internalType": "bytes32",
          "name": "role",
          "type": "bytes32"
        },
        {
          "internalType": "address",
          "name": "account",
          "type": "address"
        }
      ],
      "name": "revokeRole",
      "outputs": [],
      "stateMutability": "nonpayable",
      "type": "function"
    },
    {
      "inputs": [
        {
          "internalType": "uint256",
          "name": "tokenId",
          "type": "uint256"
        },
        {
          "internalType": "uint256",
          "name": "salePrice",
          "type": "uint256"
        }
      ],
      "name": "royaltyInfo",
      "outputs": [
        {
          "internalType": "address",
          "name": "receiver",
          "type": "address"
        },
        {
          "internalType": "uint256",
          "name": "amount",
          "type": "uint256"
        }
      ],
      "stateMutability": "view",
      "type": "function"
    },
    {
      "inputs": [
        {
          "internalType": "address",
          "name": "from",
          "type": "address"
        },
        {
          "internalType": "address",
          "name": "to",
          "type": "address"
        },
        {
          "internalType": "uint256",
          "name": "tokenId",
          "type": "uint256"
        }
      ],
      "name": "safeTransferFrom",
      "outputs": [],
      "stateMutability": "payable",
      "type": "function"
    },
    {
      "inputs": [
        {
          "internalType": "address",
          "name": "from",
          "type": "address"
        },
        {
          "internalType": "address",
          "name": "to",
          "type": "address"
        },
        {
          "internalType": "uint256",
          "name": "tokenId",
          "type": "uint256"
        },
        {
          "internalType": "bytes",
          "name": "_data",
          "type": "bytes"
        }
      ],
      "name": "safeTransferFrom",
      "outputs": [],
      "stateMutability": "payable",
      "type": "function"
    },
    {
      "inputs": [
        {
          "internalType": "address",
          "name": "operator",
          "type": "address"
        },
        {
          "internalType": "bool",
          "name": "approved",
          "type": "bool"
        }
      ],
      "name": "setApprovalForAll",
      "outputs": [],
      "stateMutability": "nonpayable",
      "type": "function"
    },
    {
      "inputs": [
        {
          "internalType": "string",
          "name": "baseURI",
          "type": "string"
        }
      ],
      "name": "setBaseURI",
      "outputs": [],
      "stateMutability": "nonpayable",
      "type": "function"
    },
    {
      "inputs": [
        {
          "internalType": "string",
          "name": "newName",
          "type": "string"
        },
        {
          "internalType": "string",
          "name": "newSymbol",
          "type": "string"
        }
      ],
      "name": "setCollectionDetails",
      "outputs": [],
      "stateMutability": "nonpayable",
      "type": "function"
    },
    {
      "inputs": [
        {
          "internalType": "uint256",
          "name": "newLimit",
          "type": "uint256"
        }
      ],
      "name": "setMaxWalletHoldings",
      "outputs": [],
      "stateMutability": "nonpayable",
      "type": "function"
    },
    {
      "inputs": [
        {
          "internalType": "uint256",
          "name": "newPrice",
          "type": "uint256"
        }
      ],
      "name": "setMintPrice",
      "outputs": [],
      "stateMutability": "nonpayable",
      "type": "function"
    },
    {
      "inputs": [
        {
          "internalType": "address",
          "name": "receiver",
          "type": "address"
        },
        {
          "internalType": "uint96",
          "name": "feeNumerator",
          "type": "uint96"
        }
      ],
      "name": "setRoyaltyInfo",
      "outputs": [],
      "stateMutability": "nonpayable",
      "type": "function"
    },
    {
      "inputs": [
        {
          "internalType": "bytes4",
          "name": "interfaceId",
          "type": "bytes4"
        }
      ],
      "name": "supportsInterface",
      "outputs": [
        {
          "internalType": "bool",
          "name": "",
          "type": "bool"
        }
      ],
      "stateMutability": "view",
      "type": "function"
    },
    {
      "inputs": [],
      "name": "symbol",
      "outputs": [
        {
          "internalType": "string",
          "name": "",
          "type": "string"
        }
      ],
      "stateMutability": "view",
      "type": "function"
    },
    {
      "inputs": [
        {
          "internalType": "uint256",
          "name": "tokenId",
          "type": "uint256"
        }
      ],
      "name": "tokenURI",
      "outputs": [
        {
          "internalType": "string",
          "name": "",
          "type": "string"
        }
      ],
      "stateMutability": "view",
      "type": "function"
    },
    {
      "inputs": [
        {
          "internalType": "address",
          "name": "owner",
          "type": "address"
        }
      ],
      "name": "tokensOfOwner",
      "outputs": [
        {
          "internalType": "uint256[]",
          "name": "",
          "type": "uint256[]"
        }
      ],
      "stateMutability": "view",
      "type": "function"
    },
    {
      "inputs": [
        {
          "internalType": "address",
          "name": "owner",
          "type": "address"
        },
        {
          "internalType": "uint256",
          "name": "start",
          "type": "uint256"
        },
        {
          "internalType": "uint256",
          "name": "stop",
          "type": "uint256"
        }
      ],
      "name": "tokensOfOwnerIn",
      "outputs": [
        {
          "internalType": "uint256[]",
          "name": "",
          "type": "uint256[]"
        }
      ],
      "stateMutability": "view",
      "type": "function"
    },
    {
      "inputs": [],
      "name": "totalSupply",
      "outputs": [
        {
          "internalType": "uint256",
          "name": "result",
          "type": "uint256"
        }
      ],
      "stateMutability": "view",
      "type": "function"
    },
    {
      "inputs": [
        {
          "internalType": "address",
          "name": "from",
          "type": "address"
        },
        {
          "internalType": "address",
          "name": "to",
          "type": "address"
        },
        {
          "internalType": "uint256",
          "name": "tokenId",
          "type": "uint256"
        }
      ],
      "name": "transferFrom",
      "outputs": [],
      "stateMutability": "payable",
      "type": "function"
    },
    {
      "inputs": [],
      "name": "unpause",
      "outputs": [],
      "stateMutability": "nonpayable",
      "type": "function"
    },
    {
      "inputs": [
        {
          "internalType": "uint256",
          "name": "tokenId",
          "type": "uint256"
        },
        {
          "internalType": "string",
          "name": "newURI",
          "type": "string"
        }
      ],
      "name": "updateMetadata",
      "outputs": [],
      "stateMutability": "nonpayable",
      "type": "function"
    },
    {
      "inputs": [
        {
          "internalType": "uint256",
          "name": "tokenId",
          "type": "uint256"
        },
        {
          "components": [
            {
              "internalType": "string",
              "name": "code",
              "type": "string"
            },
            {
              "internalType": "string",
              "name": "artVersion",
              "type": "string"
            },
            {
              "internalType": "string",
              "name": "metadataURI",
              "type": "string"
            },
            {
              "internalType": "uint256",
              "name": "level",
              "type": "uint256"
            },
            {
              "internalType": "uint256",
              "name": "power",
              "type": "uint256"
            },
            {
              "internalType": "uint256",
              "name": "rarity",
              "type": "uint256"
            }
          ],
          "internalType": "struct MadeForRats.Traits",
          "name": "newTraits",
          "type": "tuple"
        }
      ],
      "name": "updateTraits",
      "outputs": [],
      "stateMutability": "nonpayable",
      "type": "function"
    },
    {
      "inputs": [
        {
          "internalType": "address",
          "name": "newImplementation",
          "type": "address"
        },
        {
          "internalType": "bytes",
          "name": "data",
          "type": "bytes"
        }
      ],
      "name": "upgradeToAndCall",
      "outputs": [],
      "stateMutability": "payable",
      "type": "function"
    },
    {
      "inputs": [
        {
          "internalType": "address payable",
          "name": "recipient",
          "type": "address"
        }
      ],
      "name": "withdraw",
      "outputs": [],
      "stateMutability": "nonpayable",
      "type": "function"
    },
    {
      "stateMutability": "payable",
      "type": "receive"
    }
  ],
  "bytecode": "0x60a06040523060805234801561001457600080fd5b50608051613e2161003e600039600081816123710152818161239a01526125720152613e216000f3fe6080604052600436106102a25760003560e01c80635bbb217711610165578063a217fddf116100cc578063c23dc68f11610085578063c23dc68f14610800578063c87b56dd1461082d578063d547741f1461084d578063e1dc07611461086d578063e58306f91461089a578063e985e9c5146108ba578063f4a0a528146108da576102de565b8063a217fddf14610751578063a22cb46514610766578063ad3cb1cc14610786578063b7ea78b5146107b7578063b88d4fde146107cd578063c1380e29146107e0576102de565b80638456cb591161011e5780638456cb591461069a5780638462151c146106af57806391d14854146106dc57806395d89b41146106fc57806399061beb1461071157806399a2557a14610731576102de565b80635bbb2177146105e05780635c975abb1461060d5780636352211e146106225780636817c76c1461064257806370a082311461065857806375b238fc14610678576102de565b8063338cab93116102095780634f1ef286116101c25780634f1ef286146105385780635008d9281461054b57806351cff8d91461056b57806352d1902d1461058b57806353c8388e146105a057806355f804b3146105c0576102de565b8063338cab931461048e57806336568abe146104b05780633f4ba83a146104d057806342842e0e146104e55780634cd88b76146104f85780634dcf6ad614610518576102de565b806323b872dd1161025b57806323b872dd146103d3578063248a9ca3146103e65780632a55205a146104065780632db11544146104455780632f2ff15d1461045857806332cb6b0c14610478576102de565b806301ffc9a7146102f757806302fa7c471461032c57806306fdde031461034e578063081812fc14610370578063095ea7b31461039d57806318160ddd146103b0576102de565b366102de5760405134815233907f88a5966d370b9919b20f3e2c13ff65706f196a4e32cc2c12bf57088f885258749060200160405180910390a2005b604051630deab4c360e41b815260040160405180910390fd5b34801561030357600080fd5b50610317610312366004612f6a565b6108fa565b60405190151581526020015b60405180910390f35b34801561033857600080fd5b5061034c610347366004612f9c565b61090b565b005b34801561035a57600080fd5b50610363610959565b6040516103239190613031565b34801561037c57600080fd5b5061039061038b366004613044565b6109eb565b604051610323919061305d565b61034c6103ab366004613071565b610a2f565b3480156103bc57600080fd5b506103c5610a3f565b604051908152602001610323565b61034c6103e136600461309d565b610a7c565b3480156103f257600080fd5b506103c5610401366004613044565b610c4c565b34801561041257600080fd5b506104266104213660046130de565b610c6c565b604080516001600160a01b039093168352602083019190915201610323565b61034c610453366004613044565b610d33565b34801561046457600080fd5b5061034c610473366004613100565b610e47565b34801561048457600080fd5b506103c561037881565b34801561049a57600080fd5b506103c5600080516020613d8c83398151915281565b3480156104bc57600080fd5b5061034c6104cb366004613100565b610e69565b3480156104dc57600080fd5b5061034c610e9c565b61034c6104f336600461309d565b610ebc565b34801561050457600080fd5b5061034c6105133660046131c7565b610ed7565b34801561052457600080fd5b5061034c610533366004613044565b6111b1565b61034c61054636600461322a565b611233565b34801561055757600080fd5b5061034c6105663660046132b0565b61124e565b34801561057757600080fd5b5061034c61058636600461331b565b6112c6565b34801561059757600080fd5b506103c561136d565b3480156105ac57600080fd5b5061034c6105bb366004613338565b61138a565b3480156105cc57600080fd5b5061034c6105db366004613383565b611455565b3480156105ec57600080fd5b506106006105fb3660046133c4565b6114b9565b6040516103239190613474565b34801561061957600080fd5b50610317611505565b34801561062e57600080fd5b5061039061063d366004613044565b61151a565b34801561064e57600080fd5b506103c560005481565b34801561066457600080fd5b506103c561067336600461331b565b611525565b34801561068457600080fd5b506103c5600080516020613dcc83398151915281565b3480156106a657600080fd5b5061034c611584565b3480156106bb57600080fd5b506106cf6106ca36600461331b565b6115a4565b60405161032391906134c2565b3480156106e857600080fd5b506103176106f7366004613100565b6115f2565b34801561070857600080fd5b50610363611628565b34801561071d57600080fd5b5061034c61072c366004613044565b611637565b34801561073d57600080fd5b506106cf61074c3660046134fa565b61168c565b34801561075d57600080fd5b506103c5600081565b34801561077257600080fd5b5061034c61078136600461352f565b6116a3565b34801561079257600080fd5b50610363604051806040016040528060058152602001640352e302e360dc1b81525081565b3480156107c357600080fd5b506103c560015481565b61034c6107db366004613562565b611720565b3480156107ec57600080fd5b5061034c6107fb3660046135cd565b61175b565b34801561080c57600080fd5b5061082061081b366004613044565b611823565b604051610323919061360f565b34801561083957600080fd5b50610363610848366004613044565b61187a565b34801561085957600080fd5b5061034c610868366004613100565b6118d4565b34801561087957600080fd5b5061088d610888366004613044565b6118f0565b604051610323919061361d565b3480156108a657600080fd5b5061034c6108b5366004613071565b611b42565b3480156108c657600080fd5b506103176108d53660046136a0565b611c1c565b3480156108e657600080fd5b5061034c6108f5366004613044565b611c59565b600061090582611ca6565b92915050565b600080516020613dcc83398151915261092381611ccb565b6001600160a01b03831661094a5760405163d92e233d60e01b815260040160405180910390fd5b6109548383611cd5565b505050565b606060038054610968906136ce565b80601f0160208091040260200160405190810160405280929190818152602001828054610994906136ce565b80156109e15780601f106109b6576101008083540402835291602001916109e1565b820191906000526020600020905b8154815290600101906020018083116109c457829003601f168201915b5050505050905090565b60006109f682611d98565b610a0a57610a0a6333d1c03960e21b611e20565b610a12611e2a565b60009283526006016020525060409020546001600160a01b031690565b610a3b82826001611e4e565b5050565b600080610a4a611e2a565b60010154610a56611e2a565b5403039050600019610a66611eff565b14610a7957610a73611e2a565b60080154015b90565b6000610a8782611f05565b6001600160a01b039485169490915081168414610aad57610aad62a1148160e81b611e20565b600080610ab984611ff2565b91509150610ade8187610ac93390565b6001600160a01b039081169116811491141790565b610b0057610aec8633611c1c565b610b0057610b00632ce44b5f60e11b611e20565b610b0d868686600161201a565b8015610b1857600082555b610b20611e2a565b6001600160a01b0387166000908152600591909101602052604090208054600019019055610b4c611e2a565b6001600160a01b03861660008181526005929092016020526040909120805460010190554260a01b17600160e11b17610b83611e2a565b60008681526004919091016020526040812091909155600160e11b84169003610bf95760018401610bb2611e2a565b600082815260049190910160205260408120549003610bf757610bd3611e2a565b548114610bf75783610be3611e2a565b600083815260049190910160205260409020555b505b6001600160a01b0385168481887fddf252ad1be2c89b69c2b068fc378daa952ba7f163c4a11628f55a4df523b3ef600080a480600003610c4357610c43633a954ecd60e21b611e20565b50505050505050565b600080610c57612084565b60009384526020525050604090206001015490565b60008281527fdaedc9ab023613a7caf35e703657e986ccfad7e3eb0af93a2853f8d65dd86b0160205260408120805482917fdaedc9ab023613a7caf35e703657e986ccfad7e3eb0af93a2853f8d65dd86b00916001600160a01b03811690600160a01b90046001600160601b031681610cff57505081546001600160a01b03811690600160a01b90046001600160601b03165b6000612710610d176001600160601b0384168a61371e565b610d219190613735565b929650919450505050505b9250929050565b610d3b6120a8565b610d436120d0565b80600003610d645760405163c1ab6dc160e01b815260040160405180910390fd5b61037881610d70610a3f565b610d7a9190613757565b1115610d995760405163d05cb60960e01b815260040160405180910390fd5b80600054610da7919061371e565b341015610dc75760405163cd1c886760e01b815260040160405180910390fd5b60015481610dd433611525565b610dde9190613757565b1115610dfd57604051633349019160e01b815260040160405180910390fd5b610e07338261211a565b60405181815233907f30385c845b448a36257a6a1716e6ad2e1bc2cbe333cde1e69fe849ad6511adfe9060200160405180910390a2610e44612134565b50565b610e5082610c4c565b610e5981611ccb565b610e63838361215a565b50505050565b6001600160a01b0381163314610e925760405163334bd91960e11b815260040160405180910390fd5b61095482826121fb565b600080516020613dcc833981519152610eb481611ccb565b610e44612273565b61095483838360405180602001604052806000815250611720565b610edf6122ca565b54610100900460ff16610efe57610ef46122ca565b5460ff1615610f02565b303b155b610f735760405162461bcd60e51b815260206004820152603760248201527f455243373231415f5f496e697469616c697a61626c653a20636f6e7472616374604482015276081a5cc8185b1c9958591e481a5b9a5d1a585b1a5e9959604a1b60648201526084015b60405180910390fd5b6000610f7d6122ca565b54610100900460ff161590508015610fc9576001610f996122ca565b80549115156101000261ff00199092169190911790556001610fb96122ca565b805460ff19169115159190911790555b6000610fd36122ee565b805490915060ff600160401b82041615906001600160401b0316600081158015610ffa5750825b90506000826001600160401b031660011480156110165750303b155b905081158015611024575080155b156110425760405163f92ee8a960e01b815260040160405180910390fd5b845467ffffffffffffffff19166001178555831561106c57845460ff60401b1916600160401b1785555b6110768888612317565b61107e61234e565b61108661234e565b61108e612356565b61109661234e565b61109e61234e565b60036110aa89826137cf565b5060046110b788826137cf565b506110c360003361215a565b506110dc600080516020613dcc8339815191523361215a565b506110f5600080516020613d8c8339815191523361215a565b50666a94d74f4300006000556003600155611112336101f4611cd5565b6040517fe3d77c0c81a47993ce8e388adc64fe0dc88bd28fbf57cbdf333006b59ad82a0a90600090a1831561118157845460ff60401b19168555604051600181527fc7f505b2f371ae2175ee4913f4499e1f2633a7b5936321eed1cdaeb6115181d29060200160405180910390a15b505050505080156109545760006111966122ca565b80549115156101000261ff0019909216919091179055505050565b600080516020613dcc8339815191526111c981611ccb565b6111d282611d98565b6111ef5760405163c1ab6dc160e01b815260040160405180910390fd5b600082815260066020526040808220805460ff191660011790555183917f7c9bd91d0ccee585f666998e287e929bf935cedec1348f7afc4591eca690b90a91a25050565b61123b612366565b6112448261240b565b610a3b8282612423565b600080516020613dcc83398151915261126681611ccb565b6003611273858783613888565b506004611281838583613888565b507f34f654c72931b372326f31362be64bc58e08a0e8cd6b08e17ab5c260e0dceb1a858585856040516112b7949392919061396a565b60405180910390a15050505050565b600080516020613dcc8339815191526112de81611ccb565b6112e66120d0565b6001600160a01b03821661130d5760405163d92e233d60e01b815260040160405180910390fd5b476113216001600160a01b038416826124d7565b826001600160a01b03167f884edad9ce6fa2440d8a54cc123490eb96d2768479d49ff9c7366125a94243648260405161135c91815260200190565b60405180910390a250610a3b612134565b6000611377612567565b50600080516020613dac83398151915290565b600080516020613d8c8339815191526113a281611ccb565b6113ab84611d98565b6113c85760405163c1ab6dc160e01b815260040160405180910390fd5b60008481526006602052604090205460ff16156113f85760405163b087bbf360e01b815260040160405180910390fd5b6000848152600560205260409020600201611414838583613888565b50837f459157ba24c7ab9878b165ef465fa6ae2ab42bcd8445f576be378768b0c47309848460405161144792919061399c565b60405180910390a250505050565b600080516020613dcc83398151915261146d81611ccb565b600261147a838583613888565b507ff9c7803e94e0d3c02900d8a90893a6d5e90dd04d32a4cfe825520f82bf9f32f683836040516114ac92919061399c565b60405180910390a1505050565b60408051828152600583901b8082016020019092526060915b80156114fd57601f19808201918601013560006114ee82611823565b84840160200152506114d29050565b509392505050565b6000806115106125b0565b5460ff1692915050565b600061090582611f05565b60006001600160a01b038216611545576115456323d3ad8160e21b611e20565b6001600160401b03611555611e2a565b6005016000846001600160a01b03166001600160a01b0316815260200190815260200160002054169050919050565b600080516020613dcc83398151915261159c81611ccb565b610e446125d4565b60606000196115b1611eff565b146115c6576115c663bdba09d760e01b611e20565b6000806115d161261b565b905060608183146115ea576115e785848461262b565b90505b949350505050565b6000806115fd612084565b6000948552602090815260408086206001600160a01b03959095168652939052505090205460ff1690565b606060048054610968906136ce565b600080516020613dcc83398151915261164f81611ccb565b60018290556040518281527f5a608a926cbc5e51dd142232855af48a512e7b6c9b23bf9ba9475f58fe108b7e906020015b60405180910390a15050565b606061169984848461262b565b90505b9392505050565b806116ac611e2a565b336000818152600792909201602090815260408084206001600160a01b03881680865290835293819020805460ff19169515159590951790945592518415158152919290917f17307eab39ab6107e8899845ad3d59bd9653f200f220920489ca2b5937696c31910160405180910390a35050565b61172b848484610a7c565b6001600160a01b0383163b15610e635761174784848484612781565b610e6357610e636368d2bf6b60e11b611e20565b600080516020613d8c83398151915261177381611ccb565b61177c83611d98565b6117995760405163c1ab6dc160e01b815260040160405180910390fd5b60008381526006602052604090205460ff16156117c95760405163b087bbf360e01b815260040160405180910390fd5b600083815260056020526040902082906117e382826139f6565b905050827fcb51969318cee471d3abc5ee4d81ea83e4748e5063261189cbf68810b17066cf836040516118169190613b58565b60405180910390a2505050565b61182b612f2d565b611833611eff565b8211156118435761090582612863565b61184b61261b565b821015611875575b61185c8261288e565b61186c5760001990910190611853565b61090582612863565b919050565b606061188582611d98565b6118a25760405163c1ab6dc160e01b815260040160405180910390fd5b60026118ad836128ae565b6040516020016118be929190613bfa565b6040516020818303038152906040529050919050565b6118dd82610c4c565b6118e681611ccb565b610e6383836121fb565b6119296040518060c001604052806060815260200160608152602001606081526020016000815260200160008152602001600081525090565b61193282611d98565b61194f5760405163c1ab6dc160e01b815260040160405180910390fd5b60008281526005602052604090819020815160c08101909252805482908290611977906136ce565b80601f01602080910402602001604051908101604052809291908181526020018280546119a3906136ce565b80156119f05780601f106119c5576101008083540402835291602001916119f0565b820191906000526020600020905b8154815290600101906020018083116119d357829003601f168201915b50505050508152602001600182018054611a09906136ce565b80601f0160208091040260200160405190810160405280929190818152602001828054611a35906136ce565b8015611a825780601f10611a5757610100808354040283529160200191611a82565b820191906000526020600020905b815481529060010190602001808311611a6557829003601f168201915b50505050508152602001600282018054611a9b906136ce565b80601f0160208091040260200160405190810160405280929190818152602001828054611ac7906136ce565b8015611b145780601f10611ae957610100808354040283529160200191611b14565b820191906000526020600020905b815481529060010190602001808311611af757829003601f168201915b5050505050815260200160038201548152602001600482015481526020016005820154815250509050919050565b600080516020613dcc833981519152611b5a81611ccb565b6001600160a01b038316611b815760405163d92e233d60e01b815260040160405180910390fd5b81600003611ba25760405163c1ab6dc160e01b815260040160405180910390fd5b61037882611bae610a3f565b611bb89190613757565b1115611bd75760405163d05cb60960e01b815260040160405180910390fd5b611be1838361211a565b826001600160a01b03167f30385c845b448a36257a6a1716e6ad2e1bc2cbe333cde1e69fe849ad6511adfe8360405161181691815260200190565b6000611c26611e2a565b6001600160a01b039384166000908152600791909101602090815260408083209490951682529290925250205460ff1690565b600080516020613dcc833981519152611c7181611ccb565b60008290556040518281527f525b762709cc2a983aec5ccdfd807a061f993c91090b5bcd7da92ca254976aaa90602001611680565b60006001600160e01b0319821663152a902d60e11b1480610905575061090582612940565b610e448133612975565b7fdaedc9ab023613a7caf35e703657e986ccfad7e3eb0af93a2853f8d65dd86b006127106001600160601b038316811015611d3557604051636f483d0960e01b81526001600160601b038416600482015260248101829052604401610f6a565b6001600160a01b038416611d5f576000604051635b6cc80560e11b8152600401610f6a919061305d565b50604080518082019091526001600160a01b039093168084526001600160601b039092166020909301839052600160a01b909202179055565b6000611da2611eff565b821115611dcc57610905611db4611e2a565b600084815260049190910160205260409020546129ae565b611dd4611e2a565b548210156118755760005b611de7611e2a565b600084815260049190910160205260408120549150819003611e1357611e0c83613c91565b9250611ddf565b600160e01b161592915050565b8060005260046000fd5b7f2569078dfb4b0305704d3008e7403993ae9601b85f7ae5e742de3de8f8011c4090565b6000611e598361151a565b9050818015611e715750336001600160a01b03821614155b15611e9457611e808133611c1c565b611e9457611e946367d9dca160e11b611e20565b83611e9d611e2a565b6000858152600691909101602052604080822080546001600160a01b0319166001600160a01b0394851617905551859287811692908516917f8c5be1e5ebec7d5bd14f71427d1e84f3dd0314c0f7b2291e5b200ac8c7c3b9259190a450505050565b60001990565b6000611f0f611e2a565b600083815260049190910160205260409020549050611f2c611eff565b821115611f5657611f3c816129ae565b15611f4657919050565b611f56636f96cda160e11b611e20565b80600003611fcf57611f66611e2a565b548210611f7d57611f7d636f96cda160e11b611e20565b611f85611e2a565b600019909201600081815260049390930160205260409092205490508015611f7d57600160e01b8116600003611fba57919050565b611fca636f96cda160e11b611e20565b611f7d565b600160e01b8116600003611fe257919050565b611875636f96cda160e11b611e20565b6000806000611fff611e2a565b60009485526006016020525050604090912080549092909150565b6001600160a01b038316158015906120445750836001600160a01b0316836001600160a01b031614155b1561207f576001548161205685611525565b6120609190613757565b111561207f57604051633349019160e01b815260040160405180910390fd5b610e63565b7f02dd7bc7dec4dceedda775e58dd541e08a116c6c53815c0bd028192f7b62680090565b6120b0611505565b156120ce5760405163d93c066560e01b815260040160405180910390fd5b565b7f9b779b17422d0df92223018b32b4d1fa46e071723d6817e2486d003becc55f0080546001190161211457604051633ee5aeb560e01b815260040160405180910390fd5b60029055565b610a3b8282604051806020016040528060008152506129c4565b60017f9b779b17422d0df92223018b32b4d1fa46e071723d6817e2486d003becc55f0055565b600080612165612084565b905061217184846115f2565b6121f1576000848152602082815260408083206001600160a01b03871684529091529020805460ff191660011790556121a73390565b6001600160a01b0316836001600160a01b0316857f2f8788117e7eff1d82e926ec794901d17c78024a50270940304540a733656f0d60405160405180910390a46001915050610905565b6000915050610905565b600080612206612084565b905061221284846115f2565b156121f1576000848152602082815260408083206001600160a01b0387168085529252808320805460ff1916905551339287917ff6391f5c32d9c69d2a47ea670b442974b53935d1edc7fd64eb21e047a839171b9190a46001915050610905565b61227b612a38565b60006122856125b0565b805460ff1916815590507f5db9ee0a495bf2e6ff9c91a7834c1ba4fdd244a5e8aa4e537bd38aeae4b073aa335b6040516122bf919061305d565b60405180910390a150565b7fee151c8401928dc223602bb187aff91b9a56c7cae5476ef1b3287b085a16c85f90565b6000807ff0c57e16840df040f15088dc2f81fe391c3923bec73e23a9662efc9c229c6a00610905565b61231f6122ca565b54610100900460ff166123445760405162461bcd60e51b8152600401610f6a90613ca8565b610a3b8282612a5d565b6120ce612ae5565b61235e612ae5565b6120ce612b0a565b306001600160a01b037f00000000000000000000000000000000000000000000000000000000000000001614806123ed57507f00000000000000000000000000000000000000000000000000000000000000006001600160a01b03166123e1600080516020613dac833981519152546001600160a01b031690565b6001600160a01b031614155b156120ce5760405163703e46dd60e11b815260040160405180910390fd5b600080516020613dcc833981519152610a3b81611ccb565b816001600160a01b03166352d1902d6040518163ffffffff1660e01b8152600401602060405180830381865afa92505050801561247d575060408051601f3d908101601f1916820190925261247a91810190613cfc565b60015b61249c5781604051634c9c8ce360e01b8152600401610f6a919061305d565b600080516020613dac83398151915281146124cd57604051632a87526960e21b815260048101829052602401610f6a565b6109548383612b12565b804710156125015760405163cf47918160e01b815247600482015260248101829052604401610f6a565b600080836001600160a01b03168360405160006040518083038185875af1925050503d806000811461254f576040519150601f19603f3d011682016040523d82523d6000602084013e612554565b606091505b509150915081610e6357610e6381612b68565b306001600160a01b037f000000000000000000000000000000000000000000000000000000000000000016146120ce5760405163703e46dd60e11b815260040160405180910390fd5b7fcd5ed15c6e187e77e9aee88184c21f4f2182ab5827cb3b7e07fbedcd63f0330090565b6125dc6120a8565b60006125e66125b0565b805460ff1916600117815590507f62e78cea01bee320cd4e420270b5ea74000d11b0c9f74754ebdbfc544b05a2586122b23390565b6000612625611e2a565b54919050565b606081831061264457612644631960ccad60e11b611e20565b600061264e61261b565b9050600060001961265d611eff565b03612668578161266a565b835b9050808410612677578093505b600061268287611525565b905084861061268f575060005b80156127775780868603116126a357508484035b604080516001830160051b810191829052945060006126c188611823565b9050600081604001516126d2575080515b60005b6000196126e0611eff565b1461270e57868a036126fa576126f4611eff565b60010199505b612702611eff565b8a111561270e57600091505b6127178a612863565b925060408301516000811461272f5760009250612754565b83511561273b57835192505b8b831860601b612754576001820191508a8260051b8a01525b5060018a01995083604052888a148061276c57508481145b156126d55787525050505b5050509392505050565b604051630a85bd0160e11b81526000906001600160a01b0385169063150b7a02906127b6903390899088908890600401613d15565b6020604051808303816000875af19250505080156127f1575060408051601f3d908101601f191682019092526127ee91810190613d52565b60015b612846573d80801561281f576040519150601f19603f3d011682016040523d82523d6000602084013e612824565b606091505b50805160000361283e5761283e6368d2bf6b60e11b611e20565b805181602001fd5b6001600160e01b031916630a85bd0160e11b149050949350505050565b61286b612f2d565b610905612876611e2a565b60008481526004919091016020526040902054612b91565b6000612898611e2a565b6000928352600401602052506040902054151590565b606060006128bb83612bd4565b60010190506000816001600160401b038111156128da576128da613125565b6040519080825280601f01601f191660200182016040528015612904576020820181803683370190505b5090508181016020015b600019016f181899199a1a9b1b9c1cb0b131b232b360811b600a86061a8153600a850494508461290e57509392505050565b60006001600160e01b03198216637965db0b60e01b148061090557506301ffc9a760e01b6001600160e01b0319831614610905565b61297f82826115f2565b610a3b5760405163e2517d3f60e01b81526001600160a01b038216600482015260248101839052604401610f6a565b600160e01b81166001600160a01b039091161190565b6129ce8383612cac565b6001600160a01b0383163b156109545760006129e8611e2a565b5490508281035b612a026000868380600101945086612781565b612a1657612a166368d2bf6b60e11b611e20565b8181106129ef5781612a26611e2a565b5414612a3157600080fd5b5050505050565b612a40611505565b6120ce57604051638dfc202b60e01b815260040160405180910390fd5b612a656122ca565b54610100900460ff16612a8a5760405162461bcd60e51b8152600401610f6a90613ca8565b81612a93611e2a565b60020190612aa190826137cf565b5080612aab611e2a565b60030190612ab990826137cf565b506000612ac4611e2a565b556000612acf611eff565b1015610a3b57610a3b63fed8210f60e01b611e20565b612aed612dcf565b6120ce57604051631afcd79f60e31b815260040160405180910390fd5b612134612ae5565b612b1b82612de9565b6040516001600160a01b038316907fbc7cd75a20ee27fd9adebab32041f755214dbc6bffa90cc0225b39da2e5c2d3b90600090a2805115612b60576109548282612e45565b610a3b612ebb565b805115612b785780518082602001fd5b60405163d6bda27560e01b815260040160405180910390fd5b612b99612f2d565b6001600160a01b03821681526001600160401b0360a083901c166020820152600160e01b82161515604082015260e89190911c606082015290565b60008072184f03e93ff9f4daa797ed6e38ed64bf6a1f0160401b8310612c135772184f03e93ff9f4daa797ed6e38ed64bf6a1f0160401b830492506040015b6d04ee2d6d415b85acef81000000008310612c3f576d04ee2d6d415b85acef8100000000830492506020015b662386f26fc100008310612c5d57662386f26fc10000830492506010015b6305f5e1008310612c75576305f5e100830492506008015b6127108310612c8957612710830492506004015b60648310612c9b576064830492506002015b600a83106109055760010192915050565b6000612cb6611e2a565b5490506000829003612cd257612cd263b562e8dd60e01b611e20565b612cdf600084838561201a565b6001600160a01b0383164260a01b6001841460e11b1717612cfe611e2a565b60008381526004919091016020526040902055680100000000000000018202612d25611e2a565b6001600160a01b0385166000818152600592909201602052604082208054909301909255819003612d5f57612d5f622e076360e81b611e20565b81830182612d6b611eff565b600183031115612d8557612d856340b23f1d60e11b611e20565b5b808360007fddf252ad1be2c89b69c2b068fc378daa952ba7f163c4a11628f55a4df523b3ef600080a4818160010191508103612d865781612dc5611e2a565b5550610954915050565b6000612dd96122ee565b54600160401b900460ff16919050565b806001600160a01b03163b600003612e165780604051634c9c8ce360e01b8152600401610f6a919061305d565b600080516020613dac83398151915280546001600160a01b0319166001600160a01b0392909216919091179055565b6060600080846001600160a01b031684604051612e629190613d6f565b600060405180830381855af49150503d8060008114612e9d576040519150601f19603f3d011682016040523d82523d6000602084013e612ea2565b606091505b5091509150612eb2858383612eda565b95945050505050565b34156120ce5760405163b398979f60e01b815260040160405180910390fd5b606082612eef57612eea82612b68565b61169c565b8151158015612f0657506001600160a01b0384163b155b15612f265783604051639996b31560e01b8152600401610f6a919061305d565b508061169c565b60408051608081018252600080825260208201819052918101829052606081019190915290565b6001600160e01b031981168114610e4457600080fd5b600060208284031215612f7c57600080fd5b813561169c81612f54565b6001600160a01b0381168114610e4457600080fd5b60008060408385031215612faf57600080fd5b8235612fba81612f87565b915060208301356001600160601b0381168114612fd657600080fd5b809150509250929050565b60005b83811015612ffc578181015183820152602001612fe4565b50506000910152565b6000815180845261301d816020860160208601612fe1565b601f01601f19169290920160200192915050565b60208152600061169c6020830184613005565b60006020828403121561305657600080fd5b5035919050565b6001600160a01b0391909116815260200190565b6000806040838503121561308457600080fd5b823561308f81612f87565b946020939093013593505050565b6000806000606084860312156130b257600080fd5b83356130bd81612f87565b925060208401356130cd81612f87565b929592945050506040919091013590565b600080604083850312156130f157600080fd5b50508035926020909101359150565b6000806040838503121561311357600080fd5b823591506020830135612fd681612f87565b634e487b7160e01b600052604160045260246000fd5b600082601f83011261314c57600080fd5b81356001600160401b038082111561316657613166613125565b604051601f8301601f19908116603f0116810190828211818310171561318e5761318e613125565b816040528381528660208588010111156131a757600080fd5b836020870160208301376000602085830101528094505050505092915050565b600080604083850312156131da57600080fd5b82356001600160401b03808211156131f157600080fd5b6131fd8683870161313b565b9350602085013591508082111561321357600080fd5b506132208582860161313b565b9150509250929050565b6000806040838503121561323d57600080fd5b823561324881612f87565b915060208301356001600160401b0381111561326357600080fd5b6132208582860161313b565b60008083601f84011261328157600080fd5b5081356001600160401b0381111561329857600080fd5b602083019150836020828501011115610d2c57600080fd5b600080600080604085870312156132c657600080fd5b84356001600160401b03808211156132dd57600080fd5b6132e98883890161326f565b9096509450602087013591508082111561330257600080fd5b5061330f8782880161326f565b95989497509550505050565b60006020828403121561332d57600080fd5b813561169c81612f87565b60008060006040848603121561334d57600080fd5b8335925060208401356001600160401b0381111561336a57600080fd5b6133768682870161326f565b9497909650939450505050565b6000806020838503121561339657600080fd5b82356001600160401b038111156133ac57600080fd5b6133b88582860161326f565b90969095509350505050565b600080602083850312156133d757600080fd5b82356001600160401b03808211156133ee57600080fd5b818501915085601f83011261340257600080fd5b81358181111561341157600080fd5b8660208260051b850101111561342657600080fd5b60209290920196919550909350505050565b80516001600160a01b031682526020808201516001600160401b03169083015260408082015115159083015260609081015162ffffff16910152565b6020808252825182820181905260009190848201906040850190845b818110156134b6576134a3838551613438565b9284019260809290920191600101613490565b50909695505050505050565b6020808252825182820181905260009190848201906040850190845b818110156134b6578351835292840192918401916001016134de565b60008060006060848603121561350f57600080fd5b833561351a81612f87565b95602085013595506040909401359392505050565b6000806040838503121561354257600080fd5b823561354d81612f87565b915060208301358015158114612fd657600080fd5b6000806000806080858703121561357857600080fd5b843561358381612f87565b9350602085013561359381612f87565b92506040850135915060608501356001600160401b038111156135b557600080fd5b6135c18782880161313b565b91505092959194509250565b600080604083850312156135e057600080fd5b8235915060208301356001600160401b038111156135fd57600080fd5b830160c08186031215612fd657600080fd5b608081016109058284613438565b602081526000825160c0602084015261363960e0840182613005565b90506020840151601f19808584030160408601526136578383613005565b92506040860151915080858403016060860152506136758282613005565b91505060608401516080840152608084015160a084015260a084015160c08401528091505092915050565b600080604083850312156136b357600080fd5b82356136be81612f87565b91506020830135612fd681612f87565b600181811c908216806136e257607f821691505b60208210810361370257634e487b7160e01b600052602260045260246000fd5b50919050565b634e487b7160e01b600052601160045260246000fd5b808202811582820484141761090557610905613708565b60008261375257634e487b7160e01b600052601260045260246000fd5b500490565b8082018082111561090557610905613708565b601f821115610954576000816000526020600020601f850160051c810160208610156137935750805b601f850160051c820191505b818110156137b25782815560010161379f565b505050505050565b600019600383901b1c191660019190911b1790565b81516001600160401b038111156137e8576137e8613125565b6137fc816137f684546136ce565b8461376a565b602080601f83116001811461382b57600084156138195750858301515b61382385826137ba565b8655506137b2565b600085815260208120601f198616915b8281101561385a5788860151825594840194600190910190840161383b565b50858210156138785787850151600019600388901b60f8161c191681555b5050505050600190811b01905550565b6001600160401b0383111561389f5761389f613125565b6138b3836138ad83546136ce565b8361376a565b6000601f8411600181146138e157600085156138cf5750838201355b6138d986826137ba565b845550612a31565b600083815260209020601f19861690835b8281101561391257868501358255602094850194600190920191016138f2565b508682101561392f5760001960f88860031b161c19848701351681555b505060018560011b0183555050505050565b81835281816020850137506000828201602090810191909152601f909101601f19169091010190565b60408152600061397e604083018688613941565b8281036020840152613991818587613941565b979650505050505050565b602081526000611699602083018486613941565b6000808335601e198436030181126139c757600080fd5b8301803591506001600160401b038211156139e157600080fd5b602001915036819003821315610d2c57600080fd5b613a0082836139b0565b6001600160401b03811115613a1757613a17613125565b613a2b81613a2585546136ce565b8561376a565b6000601f821160018114613a595760008315613a475750838201355b613a5184826137ba565b865550613ab3565b600085815260209020601f19841690835b82811015613a8a5786850135825560209485019460019092019101613a6a565b5084821015613aa75760001960f88660031b161c19848701351681555b505060018360011b0185555b50505050613ac460208301836139b0565b613ad2818360018601613888565b5050613ae160408301836139b0565b613aef818360028601613888565b5050606082013560038201556080820135600482015560a082013560058201555050565b6000808335601e19843603018112613b2a57600080fd5b83016020810192503590506001600160401b03811115613b4957600080fd5b803603821315610d2c57600080fd5b602081526000613b688384613b13565b60c06020850152613b7d60e085018284613941565b915050613b8d6020850185613b13565b601f1980868503016040870152613ba5848385613941565b9350613bb46040880188613b13565b935091508086850301606087015250613bce838383613941565b9250505060608401356080840152608084013560a084015260a084013560c08401528091505092915050565b6000808454613c08816136ce565b60018281168015613c205760018114613c3557613c64565b60ff1984168752821515830287019450613c64565b8860005260208060002060005b85811015613c5b5781548a820152908401908201613c42565b50505082870194505b505050508351613c78818360208801612fe1565b64173539b7b760d91b9101908152600501949350505050565b600081613ca057613ca0613708565b506000190190565b60208082526034908201527f455243373231415f5f496e697469616c697a61626c653a20636f6e7472616374604082015273206973206e6f7420696e697469616c697a696e6760601b606082015260800190565b600060208284031215613d0e57600080fd5b5051919050565b6001600160a01b0385811682528416602082015260408101839052608060608201819052600090613d4890830184613005565b9695505050505050565b600060208284031215613d6457600080fd5b815161169c81612f54565b60008251613d81818460208701612fe1565b919091019291505056fe4ba68d394296e94ab6523d7aa99d008a89d73b64505b067e0770522ff96e2330360894a13ba1a3210667c828492db98dca3e2076cc3735a920a3ca505d382bbca49807205ce4d355092ef5a8a18f56e8913cf4a201fbe287825b095693c21775a26469706673582212203594d2a20b5e79c40de380055900ec73d0e5980aaca8f4d371d929724d04265864736f6c63430008180033",
  "linkReferences": {},
  "deployedLinkReferences": {}
}